:100000000C9434000C9451000C9451000C94510049
:100010000C9451000C9451000C9451000C9451001C
:100020000C9451000C9451000C9451000C9451000C
:100030000C9451000C9451000C9451000C945100FC
:100040000C9451000C9451000C9451000C945100EC
:100050000C9451000C9451000C9451000C945100DC
:100060000C9451000C94510011241FBECFEFD8E026
:10007000DEBFCDBF11E0A0E0B1E0E4E2FDE402C0EC
:1000800005900D92A435B107D9F721E0A4E5B1E0C0
:1000900001C01D92A037B207E1F70E9474220C94B0
:1000A00090260C940000CF93C82F8A3019F48DE06D
:1000B0000E945300E0ECF0E0808185FFFDCFC0930B
:1000C000C60080E090E0CF910895E0ECF0E0808100
:1000D0008823ECF78091C60090E00895611120C05C
:1000E000883078F44AB1877021E030E0B90102C06D
:1000F000660F771F8A95E2F7CB01809584238AB932
:10010000089544B1877021E030E0B90102C0660F64
:10011000771F8A95E2F7CB018095842384B90895EF
:100120006130E9F4883070F44AB1877021E030E042
:10013000B90102C0660F771F8A95E2F7CB01842BC5
:100140008AB9089544B1877021E030E0B90102C056
:10015000660F771F8A95E2F7CB01842B84B9089547
:10016000E8E5F1E083E590E09187808785E690E01F
:100170009387828783E08383158614861092C50057
:1001800087E68093C400A0ECB0E08C918D7F8C93C7
:1001900086E08093C20088E18093C100AAE6B1E0C6
:1001A0001396FC93EE931297ED93FC930895FC0144
:1001B000828164FF1EC0883070F44BB1877021E0EB
:1001C00030E0D90102C0AA0FBB1F8A95E2F7CD012A
:1001D000842B8BB92DC045B1877021E030E0D90167
:1001E00002C0AA0FBB1F8A95E2F7CD01842B85B907
:1001F0001FC0883078F44BB1877021E030E0D9011E
:1002000002C0AA0FBB1F8A95E2F7CD018095842317
:100210008BB90EC045B1877021E030E0D90102C032
:10022000AA0FBB1F8A95E2F7CD018095842385B97B
:10023000838165FF1EC0883070F44BB1877021E068
:1002400030E0D90102C0AA0FBB1F8A95E2F7CD01A9
:10025000842B8BB92DC045B1877021E030E0D901E6
:1002600002C0AA0FBB1F8A95E2F7CD01842B85B986
:100270001FC0883078F44BB1877021E030E0D9019D
:1002800002C0AA0FBB1F8A95E2F7CD018095842397
:100290008BB90EC045B1877021E030E0D90102C0B2
:1002A000AA0FBB1F8A95E2F7CD018095842385B9FB
:1002B000848166FF1EC0883070F44BB1877021E0E6
:1002C00030E0D90102C0AA0FBB1F8A95E2F7CD0129
:1002D000842B8BB92DC045B1877021E030E0D90166
:1002E00002C0AA0FBB1F8A95E2F7CD01842B85B906
:1002F0001FC0883078F44BB1877021E030E0D9011D
:1003000002C0AA0FBB1F8A95E2F7CD018095842316
:100310008BB90EC045B1877021E030E0D90102C031
:10032000AA0FBB1F8A95E2F7CD018095842385B97A
:1003300085816623F4F4883070F44BB1877021E036
:1003400030E0D90102C0AA0FBB1F8A95E2F7CD01A8
:10035000842B8BB92DC045B1877021E030E0D901E5
:1003600002C0AA0FBB1F8A95E2F7CD01842B85B985
:100370001FC0883078F44BB1877021E030E0D9019C
:1003800002C0AA0FBB1F8A95E2F7CD018095842396
:100390008BB90EC045B1877021E030E0D90102C0B1
:1003A000AA0FBB1F8A95E2F7CD018095842385B9FA
:1003B0008081883078F44BB1877021E030E0D9013A
:1003C00002C0AA0FBB1F8A95E2F7CD018095842356
:1003D0008BB90EC045B1877021E030E0D90102C071
:1003E000AA0FBB1F8A95E2F7CD018095842385B9BA
:1003F0008181883070F44BB1877021E030E0D90101
:1004000002C0AA0FBB1F8A95E2F7CD01842B8BB9DE
:100410000DC045B1877021E030E0D90102C0AA0FBC
:10042000BB1F8A95E2F7CD01842B85B9B5E0BA955B
:10043000F1F700008181883078F44BB1877021E0BA
:1004400030E0D90102C0AA0FBB1F8A95E2F7CD01A7
:10045000809584238BB90EC045B1877021E030E0D0
:10046000D90102C0AA0FBB1F8A95E2F7CD01809582
:10047000842385B98FE193E00197F1F700C0000074
:10048000828160FF1EC0883070F44BB1877021E01C
:1004900030E0D90102C0AA0FBB1F8A95E2F7CD0157
:1004A000842B8BB92DC045B1877021E030E0D90194
:1004B00002C0AA0FBB1F8A95E2F7CD01842B85B934
:1004C0001FC0883078F44BB1877021E030E0D9014B
:1004D00002C0AA0FBB1F8A95E2F7CD018095842345
:1004E0008BB90EC045B1877021E030E0D90102C060
:1004F000AA0FBB1F8A95E2F7CD018095842385B9A9
:10050000838161FF1EC0883070F44BB1877021E099
:1005100030E0D90102C0AA0FBB1F8A95E2F7CD01D6
:10052000842B8BB92DC045B1877021E030E0D90113
:1005300002C0AA0FBB1F8A95E2F7CD01842B85B9B3
:100540001FC0883078F44BB1877021E030E0D901CA
:1005500002C0AA0FBB1F8A95E2F7CD0180958423C4
:100560008BB90EC045B1877021E030E0D90102C0DF
:10057000AA0FBB1F8A95E2F7CD018095842385B928
:10058000848162FF1EC0883070F44BB1877021E017
:1005900030E0D90102C0AA0FBB1F8A95E2F7CD0156
:1005A000842B8BB92DC045B1877021E030E0D90193
:1005B00002C0AA0FBB1F8A95E2F7CD01842B85B933
:1005C0001FC0883078F44BB1877021E030E0D9014A
:1005D00002C0AA0FBB1F8A95E2F7CD018095842344
:1005E0008BB90EC045B1877021E030E0D90102C05F
:1005F000AA0FBB1F8A95E2F7CD018095842385B9A8
:10060000858163FF1EC0883070F44BB1877021E094
:1006100030E0B90102C0660F771F8A95E2F7CB017F
:10062000842B8BB92DC045B1877021E030E0D90112
:1006300002C0AA0FBB1F8A95E2F7CD01842B85B9B2
:100640001FC0883078F44BB1877021E030E0B901E9
:1006500002C0660F771F8A95E2F7CB01809584234D
:100660008BB90EC045B1877021E030E0D90102C0DE
:10067000AA0FBB1F8A95E2F7CD018095842385B927
:100680008181883070F44BB1877021E030E0B9018E
:1006900002C0660F771F8A95E2F7CB01842B8BB9D6
:1006A0000DC045B1877021E030E0D90102C0AA0F2A
:1006B000BB1F8A95E2F7CD01842B85B9B5E0BA95C9
:1006C000F1F700008181883078F44BB1877021E028
:1006D00030E0B90102C0660F771F8A95E2F7CB01BF
:1006E000809584238BB90EC045B1877021E030E03E
:1006F000D90102C0AA0FBB1F8A95E2F7CD018095F0
:10070000842385B98FE39FE10197F1F700C00000D2
:100710000895AF92BF92CF92DF92EF92FF920F9324
:100720001F93CF93DF93CDB7DEB7AC970FB6F89496
:10073000DEBF0FBECDBF85E0898384E08A8383E07E
:100740008B8382E08C8386E090E00E9485228C017E
:100750008CE0D8018C938BE011968C93FE0131963E
:100760007F016801F2E0CF0ED11C5E0125E0A20EF0
:10077000B11CD7018D917D01F60181936F0161E07C
:100780000E946E00EA14FB04A1F761E0D8018C918D
:100790000E946E0061E0F80181810E946E00FFEF0F
:1007A00029EF30E0F15020403040E1F700C0000078
:1007B00063E3C8010E94D700D80112968C9188305B
:1007C00070F44BB1877021E030E0F90102C0EE0F08
:1007D000FF1F8A95E2F7CF01842B8BB90DC045B17D
:1007E000877021E030E0B90102C0660F771F8A955B
:1007F000E2F7CB01842B85B9D80113968C91883010
:1008000070F44BB1877021E030E0F90102C0EE0FC7
:10081000FF1F8A95E2F7CF01842B8BB90DC045B13C
:10082000877021E030E0B90102C0660F771F8A951A
:10083000E2F7CB01842B85B9D80114968C918830CE
:1008400078F44BB1877021E030E0F90102C0EE0F7F
:10085000FF1F8A95E2F7CF01809584238BB90EC0E4
:1008600045B1877021E030E0B90102C0660F771F03
:100870008A95E2F7CB018095842385B9D801159636
:100880008C91883078F44BB1877021E030E0F90129
:1008900002C0EE0FFF1F8A95E2F7CF0180958423F7
:1008A0008BB90EC045B1877021E030E0B90102C0BC
:1008B000660F771F8A95E2F7CB018095842385B96F
:1008C000D8018C91883078F44BB1877021E030E00A
:1008D000F90102C0EE0FFF1F8A95E2F7CF01809564
:1008E00084238BB90EC045B1877021E030E0B90197
:1008F00002C0660F771F8A95E2F7CB0180958423AB
:1009000085B9D80111968C91883070F44BB18770FD
:1009100021E030E0F90102C0EE0FFF1F8A95E2F7F7
:10092000CF01842B8BB90DC045B1877021E030E039
:10093000B90102C0660F771F8A95E2F7CB01842BBD
:1009400085B975E07A95F1F70000D80111968C9180
:10095000883078F44BB1877021E030E0F90102C0B3
:10096000EE0FFF1F8A95E2F7CF01809584238BB9A4
:100970000EC045B1877021E030E0B90102C0660FBA
:10098000771F8A95E2F7CB018095842385B98FE1A3
:1009900093E00197F1F700C00000D80112968C9106
:1009A000883078F44BB1877021E030E0F90102C063
:1009B000EE0FFF1F8A95E2F7CF01809584238BB954
:1009C0000EC045B1877021E030E0B90102C0660F6A
:1009D000771F8A95E2F7CB018095842385B9D801EA
:1009E00013968C91883070F44BB1877021E030E021
:1009F000F90102C0EE0FFF1F8A95E2F7CF01842BA9
:100A00008BB90DC045B1877021E030E0B90102C05B
:100A1000660F771F8A95E2F7CB01842B85B9D80141
:100A200014968C91883078F44BB1877021E030E0D7
:100A3000F90102C0EE0FFF1F8A95E2F7CF01809502
:100A400084238BB90EC045B1877021E030E0B90135
:100A500002C0660F771F8A95E2F7CB018095842349
:100A600085B9D80115968C91883078F44BB1877090
:100A700021E030E0F90102C0EE0FFF1F8A95E2F796
:100A8000CF01809584238BB90EC045B1877021E0DA
:100A900030E0B90102C0660F771F8A95E2F7CB01FB
:100AA0008095842385B9D80111968C91883070F493
:100AB0004BB1877021E030E0F90102C0EE0FFF1F5B
:100AC0008A95E2F7CF01842B8BB90DC045B18770B1
:100AD00021E030E0B90102C0660F771F8A95E2F786
:100AE000CB01842B85B975E07A95F1F70000D80128
:100AF00011968C91883078F44BB1877021E030E00A
:100B0000F90102C0EE0FFF1F8A95E2F7CF01809531
:100B100084238BB90EC045B1877021E030E0B90164
:100B200002C0660F771F8A95E2F7CB018095842378
:100B300085B98FE39FE10197F1F700C0000068E2FB
:100B4000C8010E94D7006CE0C8010E94D70066E08F
:100B5000C8010E94D70061E0C8010E94D700AFE33E
:100B6000BFE11197F1F700C0000010935701009307
:100B70005601F8018281883078F44BB1877021E00A
:100B800030E0B90102C0660F771F8A95E2F7CB010A
:100B9000809584238BB90EC045B1877021E030E089
:100BA000D90102C0AA0FBB1F8A95E2F7CD0180953B
:100BB000842385B9F8018381883078F44BB187703C
:100BC00021E030E0B90102C0660F771F8A95E2F795
:100BD000CB01809584238BB90EC045B1877021E08D
:100BE00030E0D90102C0AA0FBB1F8A95E2F7CD0100
:100BF0008095842385B9F8018481883078F44BB1DD
:100C0000877021E030E0B90102C0660F771F8A9536
:100C1000E2F7CB01809584238BB90EC045B1877074
:100C200021E030E0D90102C0AA0FBB1F8A95E2F78C
:100C3000CD018095842385B9F8018581883078F4C9
:100C40004BB1877021E030E0B90102C0660F771F19
:100C50008A95E2F7CB01809584238BB90EC045B10C
:100C6000877021E030E0D90102C0AA0FBB1F8A952E
:100C7000E2F7CD018095842385B9F8018081883021
:100C800078F44BB1877021E030E0B90102C0660F03
:100C9000771F8A95E2F7CB01809584238BB90EC02C
:100CA00045B1877021E030E0D90102C0AA0FBB1F17
:100CB0008A95E2F7CD018095842385B9F801818179
:100CC000883070F44BB1877021E030E0B90102C088
:100CD000660F771F8A95E2F7CB01842B8BB90DC085
:100CE00045B1877021E030E0D90102C0AA0FBB1FD7
:100CF0008A95E2F7CD01842B85B9B5E0BA95F1F775
:100D00000000F8018181883078F44BB1877021E0D0
:100D100030E0B90102C0660F771F8A95E2F7CB0178
:100D2000809584238BB90EC045B1877021E030E0F7
:100D3000D90102C0AA0FBB1F8A95E2F7CD018095A9
:100D4000842385B9EFE1F3E03197F1F700C00000AB
:100D5000D80112968C91883070F44BB1877021E0E5
:100D600030E0F90102C0EE0FFF1F8A95E2F7CF01D4
:100D7000842B8BB90DC045B1877021E030E0B901FB
:100D800002C0660F771F8A95E2F7CB01842B85B9E5
:100D9000D80113968C91883078F44BB1877021E09C
:100DA00030E0F90102C0EE0FFF1F8A95E2F7CF0194
:100DB000809584238BB90EC045B1877021E030E067
:100DC000B90102C0660F771F8A95E2F7CB018095C3
:100DD000842385B9D80114968C91883078F44BB16E
:100DE000877021E030E0F90102C0EE0FFF1F8A9505
:100DF000E2F7CF01809584238BB90EC045B187708F
:100E000021E030E0B90102C0660F771F8A95E2F752
:100E1000CB018095842385B9D80115968C918830B3
:100E200078F44BB1877021E030E0F90102C0EE0F99
:100E3000FF1F8A95E2F7CF01809584238BB90EC0FE
:100E400045B1877021E030E0B90102C0660F771F1D
:100E50008A95E2F7CB018095842385B9D801119654
:100E60008C91883070F44BB1877021E030E0F9014B
:100E700002C0EE0FFF1F8A95E2F7CF01842B8BB9DA
:100E80000DC045B1877021E030E0B90102C0660FA6
:100E9000771F8A95E2F7CB01842B85B975E07A95A7
:100EA000F1F70000D80111968C91883078F44BB19D
:100EB000877021E030E0F90102C0EE0FFF1F8A9534
:100EC000E2F7CF01809584238BB90EC045B18770BE
:100ED00021E030E0B90102C0660F771F8A95E2F782
:100EE000CB018095842385B98FE39FE10197F1F7CA
:100EF00000C00000AFE3BFE11197F1F700C00000B0
:100F000060E8C8010E94D70060E8C8010E94D700CD
:100F1000EEE2F1E02AE540E050E081E090E004C03C
:100F20002081222309F403C44031510519F02A30ED
:100F300009F091C1D80112962C91283068F43BB188
:100F40002770BC0102C0660F771F2A95E2F7262F93
:100F5000209523232BB90CC035B12770BC0102C0EA
:100F6000660F771F2A95E2F7262F2095232325B9B0
:100F7000D80113962C91283068F43BB12770BC013E
:100F800002C0660F771F2A95E2F7262F20952323AC
:100F90002BB90CC035B12770BC0102C0660F771F9A
:100FA0002A95E2F7262F2095232325B9D8011496F8
:100FB0002C91283060F46BB12770DC0102C0AA0FBD
:100FC000BB1F2A95E2F79D01262B2BB90BC065B1FB
:100FD0002770DC0102C0AA0FBB1F2A95E2F79D0112
:100FE000262B25B9D80115962C91283060F46BB1C9
:100FF0002770DC0102C0AA0FBB1F2A95E2F79D01F2
:10100000262B2BB90BC065B12770DC0102C0AA0FDB
:10101000BB1F2A95E2F79D01262B25B9D8012C91FB
:10102000283068F43BB12770BC0102C0660F771FFF
:101030002A95E2F7262F209523232BB90CC035B132
:101040002770BC0102C0660F771F2A95E2F7262F92
:101050002095232325B9D80111962C91283060F4CE
:101060006BB12770DC0102C0AA0FBB1F2A95E2F703
:101070009D01262B2BB90BC065B12770DC0102C086
:10108000AA0FBB1F2A95E2F79D01262B25B9B5E0D3
:10109000BA95F1F70000D80111962C91283068F428
:1010A0003BB12770BC0102C0660F771F2A95E2F79B
:1010B000262F209523232BB90CC035B12770BC01F6
:1010C00002C0660F771F2A95E2F7262F209523236B
:1010D00025B9AFE1B3E01197F1F700C00000D801E6
:1010E00012962C91283068F43BB12770BC0102C0E5
:1010F000660F771F2A95E2F7262F209523232BB919
:101100000CC035B12770BC0102C0660F771F2A954D
:10111000E2F7262F2095232325B9D80113962C9189
:10112000283068F43BB12770BC0102C0660F771FFE
:101130002A95E2F7262F209523232BB90CC035B131
:101140002770BC0102C0660F771F2A95E2F7262F91
:101150002095232325B9D80114962C91283068F4C2
:101160003BB12770BC0102C0660F771F2A95E2F7DA
:10117000262F209523232BB90CC035B12770BC0135
:1011800002C0660F771F2A95E2F7262F20952323AA
:1011900025B9D80115962C91283068F43BB12770F9
:1011A000BC0102C0660F771F2A95E2F7262F209513
:1011B00023232BB90CC035B12770BC0102C0660FC8
:1011C000771F2A95E2F7262F2095232325B9D801EA
:1011D00011962C91283060F46BB12770DC0102C0AD
:1011E000AA0FBB1F2A95E2F79D01262B2BB90BC036
:1011F00065B12770DC0102C0AA0FBB1F2A95E2F778
:101200009D01262B25B9B5E0BA95F1F70000D8016C
:1012100011962C91283068F43BB12770BC0102C0B4
:10122000660F771F2A95E2F7262F209523232BB9E7
:101230000CC035B12770BC0102C0660F771F2A951C
:10124000E2F7262F2095232325B9AFE3BFE11197BD
:10125000F1F700C000002191622FD80112963C9155
:1012600024FF18C0383058F47BB13770DC0102C05D
:10127000AA0FBB1F3A95E2F7A72BABB926C075B1F1
:101280003770DC0102C0AA0FBB1F3A95E2F7A72B0B
:10129000A5B91BC0383068F47BB13770DC0102C0DF
:1012A000AA0FBB1F3A95E2F73A2F309537233BB987
:1012B0000CC075B13770DC0102C0AA0FBB1F3A9594
:1012C000E2F73A2F3095372335B9D80113963C9180
:1012D00025FF18C0383058F47BB13770DC0102C0EC
:1012E000AA0FBB1F3A95E2F7A72BABB926C075B181
:1012F0003770DC0102C0AA0FBB1F3A95E2F7A72B9B
:10130000A5B91BC0383068F47BB13770DC0102C06E
:10131000AA0FBB1F3A95E2F73A2F309537233BB916
:101320000CC075B13770DC0102C0AA0FBB1F3A9523
:10133000E2F73A2F3095372335B9D80114963C910E
:1013400026FF18C0383058F47BB13770DC0102C07A
:10135000AA0FBB1F3A95E2F7A72BABB926C075B110
:101360003770DC0102C0AA0FBB1F3A95E2F7A72B2A
:10137000A5B91BC0383068F47BB13770DC0102C0FE
:10138000AA0FBB1F3A95E2F73A2F309537233BB9A6
:101390000CC075B13770DC0102C0AA0FBB1F3A95B3
:1013A000E2F73A2F3095372335B9D80115963C919D
:1013B0006623C4F4383058F4ABB13770BC0102C0B6
:1013C000660F771F3A95E2F76A2B6BB926C0A5B175
:1013D0003770BC0102C0660F771F3A95E2F76A2B9F
:1013E00065B91BC0383068F46BB13770DC0102C0DE
:1013F000AA0FBB1F3A95E2F73A2F309536233BB937
:101400000CC065B13770DC0102C0AA0FBB1F3A9552
:10141000E2F73A2F3095362335B9D8013C91383070
:1014200058F4ABB13770BC0102C0660F771F3A9514
:10143000E2F76A2B6BB90AC0A5B13770BC0102C0D4
:10144000660F771F3A95E2F76A2B65B9D8011196B6
:101450003C91383058F4ABB13770BC0102C0660F14
:10146000771F3A95E2F76A2B6BB90AC0A5B13770BE
:10147000BC0102C0660F771F3A95E2F76A2B65B987
:10148000B5E0BA95F1F70000D80111963C913830DB
:1014900068F46BB13770DC0102C0AA0FBB1F3A952C
:1014A000E2F73A2F309536233BB90CC065B137705F
:1014B000DC0102C0AA0FBB1F3A95E2F73A2F309524
:1014C000362335B9AFE1B3E01197F1F700C0000062
:1014D000D80112963C9120FF18C0383058F4ABB1B7
:1014E0003770BC0102C0660F771F3A95E2F76A2B8E
:1014F0006BB926C0A5B13770BC0102C0660F771F5B
:101500003A95E2F76A2B65B91BC0383068F46BB1C5
:101510003770DC0102C0AA0FBB1F3A95E2F73A2FE1
:10152000309536233BB90CC065B13770DC0102C081
:10153000AA0FBB1F3A95E2F73A2F3095362335B9FB
:10154000D80113963C9121FF18C0383058F4ABB144
:101550003770BC0102C0660F771F3A95E2F76A2B1D
:101560006BB926C0A5B13770BC0102C0660F771FEA
:101570003A95E2F76A2B65B91BC0383068F46BB155
:101580003770DC0102C0AA0FBB1F3A95E2F73A2F71
:10159000309536233BB90CC065B13770DC0102C011
:1015A000AA0FBB1F3A95E2F73A2F3095362335B98B
:1015B000D80114963C9122FF18C0383058F4ABB1D2
:1015C0003770BC0102C0660F771F3A95E2F76A2BAD
:1015D0006BB926C0A5B13770BC0102C0660F771F7A
:1015E0003A95E2F76A2B65B91BC0383068F46BB1E5
:1015F0003770DC0102C0AA0FBB1F3A95E2F73A2F01
:10160000309536233BB90CC065B13770DC0102C0A0
:10161000AA0FBB1F3A95E2F73A2F3095362335B91A
:10162000D80115963C9123FF1AC0383060F46BB195
:101630003770DC0102C0AA0FBB1F3A95E2F79D018B
:10164000262B2BB927C065B13770DC0102C0AA0F69
:10165000BB1F3A95E2F79D01262B25B91BC03830F8
:1016600068F46BB13770DC0102C0AA0FBB1F3A955A
:10167000E2F79D01209526232BB90CC065B1377088
:10168000DC0102C0AA0FBB1F3A95E2F79D0120952D
:10169000262325B9D80111962C91283060F46BB11E
:1016A0002770DC0102C0AA0FBB1F2A95E2F79D013B
:1016B000262B2BB90BC065B12770DC0102C0AA0F25
:1016C000BB1F2A95E2F79D01262B25B9B5E0BA95F7
:1016D000F1F70000D80111962C91283068F43BB145
:1016E0002770BC0102C0660F771F2A95E2F7262FEC
:1016F000209523232BB90CC035B12770BC0102C043
:10170000660F771F2A95E2F7262F2095232325B908
:10171000AFE3BFE11197F1F700C000004F5F5F4FEB
:101720004032510509F0FCCB42E050E002C042E0FB
:1017300050E021E030E0E0915601F09157018281C4
:10174000883068F49BB18770B90102C0660F771FBB
:101750008A95E2F7862F809589238BB90CC095B1C5
:101760008770B90102C0660F771F8A95E2F7862F4E
:101770008095892385B98381883060F46BB1877047
:10178000D90102C0AA0FBB1F8A95E2F7CD01862BB3
:101790008BB90BC065B18770D90102C0AA0FBB1FFE
:1017A0008A95E2F7CD01862B85B98481883068F46B
:1017B0009BB18770B90102C0660F771F8A95E2F767
:1017C000862F809589238BB90CC095B18770B9019C
:1017D00002C0660F771F8A95E2F7862F80958923CE
:1017E00085B98581883068F49BB18770B90102C0E2
:1017F000660F771F8A95E2F7862F809589238BB92C
:101800000CC095B18770B90102C0660F771F8A9529
:10181000E2F7862F8095892385B98081883060F42E
:101820006BB18770D90102C0AA0FBB1F8A95E2F77E
:10183000CD01862B8BB90BC065B18770D90102C071
:10184000AA0FBB1F8A95E2F7CD01862B85B981814E
:10185000883060F46BB18770D90102C0AA0FBB1F3A
:101860008A95E2F7CD01862B8BB90BC065B18770E5
:10187000D90102C0AA0FBB1F8A95E2F7CD01862BC2
:1018800085B9B5E0BA95F1F700008181883068F438
:101890009BB18770B90102C0660F771F8A95E2F786
:1018A000862F809589238BB90CC095B18770B901BB
:1018B00002C0660F771F8A95E2F7862F80958923ED
:1018C00085B98FE193E00197F1F700C000008281B4
:1018D000883068F49BB18770B90102C0660F771F2A
:1018E0008A95E2F7862F809589238BB90CC095B134
:1018F0008770B90102C0660F771F8A95E2F7862FBD
:101900008095892385B98381883060F46BB18770B5
:10191000D90102C0AA0FBB1F8A95E2F7CD01862B21
:101920008BB90BC065B18770D90102C0AA0FBB1F6C
:101930008A95E2F7CD01862B85B98481883060F4E1
:101940006BB18770D90102C0AA0FBB1F8A95E2F75D
:10195000CD01862B8BB90BC065B18770D90102C050
:10196000AA0FBB1F8A95E2F7CD01862B85B9858129
:10197000883060F46BB18770D90102C0AA0FBB1F19
:101980008A95E2F7CD01862B8BB90BC065B18770C4
:10199000D90102C0AA0FBB1F8A95E2F7CD01862BA1
:1019A00085B98181883060F46BB18770D90102C03C
:1019B000AA0FBB1F8A95E2F7CD01862B8BB90BC00E
:1019C00065B18770D90102C0AA0FBB1F8A95E2F7E3
:1019D000CD01862B85B9B5E0BA95F1F7000081817C
:1019E000883068F49BB18770B90102C0660F771F19
:1019F0008A95E2F7862F809589238BB90CC095B123
:101A00008770B90102C0660F771F8A95E2F7862FAB
:101A10008095892385B9EFE3FFE13197F1F700C0A5
:101A2000000084EF91E0AFE9BFE01197F1F700C04B
:101A300000000197C1F74150510909F07CCE81E0C7
:101A400090E00E9485222DE0FC01208390935501B7
:101A50008093540143E050E021E030E0E0915601F2
:101A6000F09157018281883068F49BB18770B90189
:101A700002C0660F771F8A95E2F7862F809589232B
:101A80008BB90CC095B18770B90102C0660F771F82
:101A90008A95E2F7862F8095892385B983818830DE
:101AA00060F46BB18770D90102C0AA0FBB1F8A9581
:101AB000E2F7CD01862B8BB90BC065B18770D901D8
:101AC00002C0AA0FBB1F8A95E2F7CD01862B85B90C
:101AD0008481883068F49BB18770B90102C0660FB9
:101AE000771F8A95E2F7862F809589238BB90CC0E2
:101AF00095B18770B90102C0660F771F8A95E2F72A
:101B0000862F8095892385B98581883068F49BB1BB
:101B10008770B90102C0660F771F8A95E2F7862F9A
:101B2000809589238BB90CC095B18770B90102C02B
:101B3000660F771F8A95E2F7862F8095892385B9EE
:101B40008081883060F46BB18770D90102C0AA0F20
:101B5000BB1F8A95E2F7CD01862B8BB90BC065B10F
:101B60008770D90102C0AA0FBB1F8A95E2F7CD0189
:101B7000862B85B98181883060F46BB18770D9017B
:101B800002C0AA0FBB1F8A95E2F7CD01862B8BB945
:101B90000BC065B18770D90102C0AA0FBB1F8A951F
:101BA000E2F7CD01862B85B9B5E0BA95F1F70000D3
:101BB0008181883068F49BB18770B90102C0660FDB
:101BC000771F8A95E2F7862F809589238BB90CC001
:101BD00095B18770B90102C0660F771F8A95E2F749
:101BE000862F8095892385B98FE193E00197F1F7DE
:101BF00000C000008281883068F49BB18770B90111
:101C000002C0660F771F8A95E2F7862F8095892399
:101C10008BB90CC095B18770B90102C0660F771FF0
:101C20008A95E2F7862F8095892385B9838188304C
:101C300060F46BB18770D90102C0AA0FBB1F8A95EF
:101C4000E2F7CD01862B8BB90BC065B18770D90146
:101C500002C0AA0FBB1F8A95E2F7CD01862B85B97A
:101C60008481883060F46BB18770D90102C0AA0FFB
:101C7000BB1F8A95E2F7CD01862B8BB90BC065B1EE
:101C80008770D90102C0AA0FBB1F8A95E2F7CD0168
:101C9000862B85B98581883060F46BB18770D90156
:101CA00002C0AA0FBB1F8A95E2F7CD01862B8BB924
:101CB0000BC065B18770D90102C0AA0FBB1F8A95FE
:101CC000E2F7CD01862B85B98181883060F46BB154
:101CD0008770D90102C0AA0FBB1F8A95E2F7CD0118
:101CE000862B8BB90BC065B18770D90102C0AA0FD2
:101CF000BB1F8A95E2F7CD01862B85B9B5E0BA9571
:101D0000F1F700008181883068F49BB18770B901D8
:101D100002C0660F771F8A95E2F7862F8095892388
:101D20008BB90CC095B18770B90102C0660F771FDF
:101D30008A95E2F7862F8095892385B9EFE3FFE145
:101D40003197F1F700C0000084EF91E0AFE9BFE008
:101D50001197F1F700C000000197C1F741505109F8
:101D600009F07CCE82E2E6E0F1E0DE01159601901A
:101D70000D928A95E1F7FE01B79686E0DF011D928C
:101D80008A95E9F7009156011091570161E0C80169
:101D90000E94D700EFE3FFE13197F1F700C00000A8
:101DA00060E8C8010E94D70060E8C8010E94D7001F
:101DB0002D81222309F40BC4FE01359640E050E04A
:101DC00081E090E004C02081222309F400C4403166
:101DD000510519F02A3009F091C1D80112962C91C1
:101DE000283068F43BB12770BC0102C0660F771F32
:101DF0002A95E2F7262F209523232BB90CC035B165
:101E00002770BC0102C0660F771F2A95E2F7262FC4
:101E10002095232325B9D80113962C91283068F4F6
:101E20003BB12770BC0102C0660F771F2A95E2F70D
:101E3000262F209523232BB90CC035B12770BC0168
:101E400002C0660F771F2A95E2F7262F20952323DD
:101E500025B9D80114962C91283060F46BB1277005
:101E6000DC0102C0AA0FBB1F2A95E2F79D01262BB9
:101E70002BB90BC065B12770DC0102C0AA0FBB1FD4
:101E80002A95E2F79D01262B25B9D80115962C91AC
:101E9000283060F46BB12770DC0102C0AA0FBB1FB1
:101EA0002A95E2F79D01262B2BB90BC065B127704F
:101EB000DC0102C0AA0FBB1F2A95E2F79D01262B69
:101EC00025B9D8012C91283068F43BB12770BC01AA
:101ED00002C0660F771F2A95E2F7262F209523234D
:101EE0002BB90CC035B12770BC0102C0660F771F3B
:101EF0002A95E2F7262F2095232325B9D80111969C
:101F00002C91283060F46BB12770DC0102C0AA0F5D
:101F1000BB1F2A95E2F79D01262B2BB90BC065B19B
:101F20002770DC0102C0AA0FBB1F2A95E2F79D01B2
:101F3000262B25B9B5E0BA95F1F70000D801119626
:101F40002C91283068F43BB12770BC0102C0660FA9
:101F5000771F2A95E2F7262F209523232BB90CC053
:101F600035B12770BC0102C0660F771F2A95E2F7D2
:101F7000262F2095232325B9AFE1B3E01197F1F780
:101F800000C00000D80112962C91283068F43BB1B3
:101F90002770BC0102C0660F771F2A95E2F7262F33
:101FA000209523232BB90CC035B12770BC0102C08A
:101FB000660F771F2A95E2F7262F2095232325B950
:101FC000D80113962C91283068F43BB12770BC01DE
:101FD00002C0660F771F2A95E2F7262F209523234C
:101FE0002BB90CC035B12770BC0102C0660F771F3A
:101FF0002A95E2F7262F2095232325B9D801149698
:102000002C91283068F43BB12770BC0102C0660FE8
:10201000771F2A95E2F7262F209523232BB90CC092
:1020200035B12770BC0102C0660F771F2A95E2F711
:10203000262F2095232325B9D80115962C912830D9
:1020400068F43BB12770BC0102C0660F771F2A9568
:10205000E2F7262F209523232BB90CC035B127702A
:10206000BC0102C0660F771F2A95E2F7262F209544
:10207000232325B9D80111962C91283060F46BB137
:102080002770DC0102C0AA0FBB1F2A95E2F79D0151
:10209000262B2BB90BC065B12770DC0102C0AA0F3B
:1020A000BB1F2A95E2F79D01262B25B9B5E0BA950D
:1020B000F1F70000D80111962C91283068F43BB15B
:1020C0002770BC0102C0660F771F2A95E2F7262F02
:1020D000209523232BB90CC035B12770BC0102C059
:1020E000660F771F2A95E2F7262F2095232325B91F
:1020F000AFE3BFE11197F1F700C000002191622F1B
:10210000D80112963C9124FF18C0383058F47BB1A6
:102110003770DC0102C0AA0FBB1F3A95E2F7A72B6C
:10212000ABB926C075B13770DC0102C0AA0FBB1F66
:102130003A95E2F7A72BA5B91BC0383068F47BB1FC
:102140003770DC0102C0AA0FBB1F3A95E2F73A2FA5
:10215000309537233BB90CC075B13770DC0102C034
:10216000AA0FBB1F3A95E2F73A2F3095372335B9BE
:10217000D80113963C9125FF18C0383058F47BB134
:102180003770DC0102C0AA0FBB1F3A95E2F7A72BFC
:10219000ABB926C075B13770DC0102C0AA0FBB1FF6
:1021A0003A95E2F7A72BA5B91BC0383068F47BB18C
:1021B0003770DC0102C0AA0FBB1F3A95E2F73A2F35
:1021C000309537233BB90CC075B13770DC0102C0C4
:1021D000AA0FBB1F3A95E2F73A2F3095372335B94E
:1021E000D80114963C9126FF18C0383058F47BB1C2
:1021F0003770DC0102C0AA0FBB1F3A95E2F7A72B8C
:10220000ABB926C075B13770DC0102C0AA0FBB1F85
:102210003A95E2F7A72BA5B91BC0383068F47BB11B
:102220003770DC0102C0AA0FBB1F3A95E2F73A2FC4
:10223000309537233BB90CC075B13770DC0102C053
:10224000AA0FBB1F3A95E2F73A2F3095372335B9DD
:10225000D80115963C916623C4F4383058F4ABB1DC
:102260003770BC0102C0660F771F3A95E2F76A2B00
:102270006BB926C0A5B13770BC0102C0660F771FCD
:102280003A95E2F76A2B65B91BC0383068F46BB138
:102290003770DC0102C0AA0FBB1F3A95E2F73A2F54
:1022A000309536233BB90CC065B13770DC0102C0F4
:1022B000AA0FBB1F3A95E2F73A2F3095362335B96E
:1022C000D8013C91383058F4ABB13770BC0102C032
:1022D000660F771F3A95E2F76A2B6BB90AC0A5B172
:1022E0003770BC0102C0660F771F3A95E2F76A2B80
:1022F00065B9D80111963C91383058F4ABB13770BC
:10230000BC0102C0660F771F3A95E2F76A2B6BB9E2
:102310000AC0A5B13770BC0102C0660F771F3A959D
:10232000E2F76A2B65B9B5E0BA95F1F70000D8017C
:1023300011963C91383068F46BB13770DC0102C003
:10234000AA0FBB1F3A95E2F73A2F309536233BB9D7
:102350000CC065B13770DC0102C0AA0FBB1F3A95F3
:10236000E2F73A2F3095362335B9AFE1B3E0119754
:10237000F1F700C00000D80112963C9120FF18C070
:10238000383058F4ABB13770BC0102C0660F771F0C
:102390003A95E2F76A2B6BB926C0A5B13770BC013C
:1023A00002C0660F771F3A95E2F76A2B65B91BC02A
:1023B000383068F46BB13770DC0102C0AA0FBB1F64
:1023C0003A95E2F73A2F309536233BB90CC065B108
:1023D0003770DC0102C0AA0FBB1F3A95E2F73A2F13
:1023E0003095362335B9D80113963C9121FF18C09A
:1023F000383058F4ABB13770BC0102C0660F771F9C
:102400003A95E2F76A2B6BB926C0A5B13770BC01CB
:1024100002C0660F771F3A95E2F76A2B65B91BC0B9
:10242000383068F46BB13770DC0102C0AA0FBB1FF3
:102430003A95E2F73A2F309536233BB90CC065B197
:102440003770DC0102C0AA0FBB1F3A95E2F73A2FA2
:102450003095362335B9D80114963C9122FF18C027
:10246000383058F4ABB13770BC0102C0660F771F2B
:102470003A95E2F76A2B6BB926C0A5B13770BC015B
:1024800002C0660F771F3A95E2F76A2B65B91BC049
:10249000383068F46BB13770DC0102C0AA0FBB1F83
:1024A0003A95E2F73A2F309536233BB90CC065B127
:1024B0003770DC0102C0AA0FBB1F3A95E2F73A2F32
:1024C0003095362335B9D80115963C9123FF1AC0B3
:1024D000383060F46BB13770DC0102C0AA0FBB1F4B
:1024E0003A95E2F79D01262B2BB927C065B13770CD
:1024F000DC0102C0AA0FBB1F3A95E2F79D01262B13
:1025000025B91BC0383068F46BB13770DC0102C0EC
:10251000AA0FBB1F3A95E2F79D01209526232BB900
:102520000CC065B13770DC0102C0AA0FBB1F3A9521
:10253000E2F79D012095262325B9D80111962C910B
:10254000283060F46BB12770DC0102C0AA0FBB1FFA
:102550002A95E2F79D01262B2BB90BC065B1277098
:10256000DC0102C0AA0FBB1F2A95E2F79D01262BB2
:1025700025B9B5E0BA95F1F70000D80111962C9174
:10258000283068F43BB12770BC0102C0660F771F8A
:102590002A95E2F7262F209523232BB90CC035B1BD
:1025A0002770BC0102C0660F771F2A95E2F7262F1D
:1025B0002095232325B9AFE3BFE11197F1F700C0C0
:1025C00000004F5F5F4F4032510509F0FCCBAC96E5
:1025D0000FB6F894DEBF0FBECDBFDF91CF911F9134
:1025E0000F91FF90EF90DF90CF90BF90AF90089544
:1025F000EF92FF920F931F93CF93DF93CDB7DEB788
:102600002A970FB6F894DEBF0FBECDBF00915401DC
:102610001091550161E0D8018C910E946E00F80183
:102620008081883070F44BB1877021E030E0B901CF
:1026300002C0660F771F8A95E2F7CB01842B8BB916
:102640000DC045B1877021E030E0D90102C0AA0F6A
:10265000BB1F8A95E2F7CD01842B85B9BFEFE3ED6F
:10266000F0E3B150E040F040E1F700C00000D801D5
:102670008C91883078F44BB1877021E030E0F9011B
:1026800002C0EE0FFF1F8A95E2F7CF0180958423E9
:102690008BB90EC045B1877021E030E0B90102C0AE
:1026A000660F771F8A95E2F7CB018095842385B961
:1026B0007FEF89EF90E0715080409040E1F700C0DB
:1026C0000000D8018C91883070F44BB1877021E004
:1026D00030E0F90102C0EE0FFF1F8A95E2F7CF014B
:1026E000842B8BB90DC045B1877021E030E0B90172
:1026F00002C0660F771F8A95E2F7CB01842B85B95C
:1027000060E0D8018C910E946E00F8014081842F16
:10271000877021E030E002C0220F331F8A95E2F774
:10272000483010F489B101C083B190E08223932333
:10273000892BB1F7483010F489B101C083B190E022
:1027400082239323892BB1F3483010F489B101C05F
:1027500083B190E082239323892BB1F748E050E0C6
:10276000F12C61E070E0D8012C91822F8770FB0181
:1027700002C0EE0FFF1F8A95E2F7283010F489B1EE
:1027800001C083B190E08E239F23892BB1F3B0EA7F
:10279000BA95F1F7F8012081283010F489B101C011
:1027A00083B1322F377090E0032E02C09595879544
:1027B0000A94E2F780FF05C08F2D880F8160F82E04
:1027C00001C0FF0CFB0102C0EE0FFF1F3A95E2F7BC
:1027D000283010F489B101C083B190E08E239F238B
:1027E000892BB1F74150510909F0BDCF48E050E0C5
:1027F00020E061E070E0D8013C91832F8770FB01FD
:1028000002C0EE0FFF1F8A95E2F7383010F489B14D
:1028100001C083B190E08E239F23892BB1F3B0EAEE
:10282000BA95F1F7F8013081383010F489B101C060
:1028300083B1E32FE77090E00E2E02C09595879547
:102840000A94E2F780FF03C0220F216001C0220F2B
:10285000CB0102C0880F991FEA95E2F7FC013830DE
:1028600010F489B101C083B190E08E239F23892B9E
:10287000B1F74150510909F0BECF48E050E030E0D7
:1028800061E070E0D801EC918E2F8770DB0102C00F
:10289000AA0FBB1F8A95E2F7E83010F489B101C096
:1028A00083B190E08A239B23892BB1F3B0EABA95D8
:1028B000F1F7D801EC91E83010F489B101C083B18F
:1028C000FE2FF77090E00F2E02C0959587950A9421
:1028D000E2F780FF03C0330F316001C0330FDB012B
:1028E00002C0AA0FBB1FFA95E2F7E83010F489B1D5
:1028F00001C083B190E08A239B23892BB1F741501B
:10290000510909F0BFCF48E050E0E0E061E070E03D
:10291000D801FC918F2F8770DB0102C0AA0FBB1F6B
:102920008A95E2F7F83010F489B101C083B190E0E4
:102930008A239B23892BB1F3B0EABA95F1F7D8012A
:10294000FC91F83010F489B101C083B1AF2FA770AA
:1029500090E00A2E02C0959587950A94E2F780FFD1
:1029600003C0EE0FE16001C0EE0FCB0102C0880F83
:10297000991FAA95E2F7DC01F83010F489B101C083
:1029800083B190E08A239B23892BB1F741505109F1
:1029900009F0BECF48E050E0E12C61E070E0D801E2
:1029A000FC918F2F8770DB0102C0AA0FBB1F8A9595
:1029B000E2F7F83010F489B101C083B190E08A23C6
:1029C0009B23892BB1F3B0EABA95F1F7D801FC91BA
:1029D000F83010F489B101C083B1AF2FA77090E037
:1029E0000A2E02C0959587950A94E2F780FF05C0EC
:1029F0008E2D880F8160E82E01C0EE0CCB0102C045
:102A0000880F991FAA95E2F7DC01F83010F489B11C
:102A100001C083B190E08A239B23892BB1F74150F9
:102A2000510909F0BCCF822F90E08F0D911D830FCB
:102A3000911D8E0F911D4E2D50E08417950701F5C5
:102A40001F921F921F923F930AE411E01F930F936E
:102A5000CE0101969F938F930E94A6231F921F92EF
:102A60001F92FF921F930F93CE0106969F938F9311
:102A70000E94A6230FB6F894DEBF0FBECDBF12C0D2
:102A800085E0EEE4F1E0DE01119601900D928A9569
:102A9000E1F785E0EEE4F1E0DE01169601900D929B
:102AA0008A95E1F7E0915601F091570182818830D3
:102AB00078F44BB1877021E030E0890102C0000F4B
:102AC000111F8A95E2F7C801809584238BB90EC047
:102AD00045B1877021E030E0B90102C0660F771F71
:102AE0008A95E2F7CB018095842385B9838188306C
:102AF00078F44BB1877021E030E0D90102C0AA0F11
:102B0000BB1F8A95E2F7CD01809584238BB90EC057
:102B100045B1877021E030E0890102C0000F111F2C
:102B20008A95E2F7C8018095842385B9848188302D
:102B300078F44BB1877021E030E0B90102C0660F34
:102B4000771F8A95E2F7CB01809584238BB90EC05D
:102B500045B1877021E030E0D90102C0AA0FBB1F48
:102B60008A95E2F7CD018095842385B985818830E7
:102B700070F44BB1877021E030E0890102C0000F92
:102B8000111F8A95E2F7C801842B8BB90DC045B19E
:102B9000877021E030E0B90102C0660F771F8A9587
:102BA000E2F7CB01842B85B98081883078F44BB172
:102BB000877021E030E0D90102C0AA0FBB1F8A95BF
:102BC000E2F7CD01809584238BB90EC045B18770A3
:102BD00021E030E0890102C0000F111F8A95E2F761
:102BE000C8018095842385B98181883070F44BB108
:102BF000877021E030E0B90102C0660F771F8A9527
:102C0000E2F7CB01842B8BB90DC045B1877021E071
:102C100030E0D90102C0AA0FBB1F8A95E2F7CD01AF
:102C2000842B85B9B5E0BA95F1F700008181883031
:102C300078F44BB1877021E030E0890102C0000FC9
:102C4000111F8A95E2F7C801809584238BB90EC0C5
:102C500045B1877021E030E0B90102C0660F771FEF
:102C60008A95E2F7CB018095842385B98FE193E0C3
:102C70000197F1F700C000008281883078F44BB1F1
:102C8000877021E030E0D90102C0AA0FBB1F8A95EE
:102C9000E2F7CD01809584238BB90EC045B18770D2
:102CA00021E030E0890102C0000F111F8A95E2F790
:102CB000C8018095842385B98381883078F44BB12D
:102CC000877021E030E0B90102C0660F771F8A9556
:102CD000E2F7CB01809584238BB90EC045B1877094
:102CE00021E030E0D90102C0AA0FBB1F8A95E2F7AC
:102CF000CD018095842385B98481883078F44BB1E7
:102D0000877021E030E0890102C0000F111F8A9511
:102D1000E2F7C801809584238BB90EC045B1877056
:102D200021E030E0B90102C0660F771F8A95E2F713
:102D3000CB018095842385B98581883078F44BB1A7
:102D4000877021E030E0D90102C0AA0FBB1F8A952D
:102D5000E2F7CD01809584238BB90EC045B1877011
:102D600021E030E0890102C0000F111F8A95E2F7CF
:102D7000C8018095842385B98181883070F44BB176
:102D8000877021E030E0B90102C0660F771F8A9595
:102D9000E2F7CB01842B8BB90DC045B1877021E0E0
:102DA00030E0D90102C0AA0FBB1F8A95E2F7CD011E
:102DB000842B85B9B5E0BA95F1F7000081818830A0
:102DC00078F44BB1877021E030E0890102C0000F38
:102DD000111F8A95E2F7C801809584238BB90EC034
:102DE00045B1877021E030E0B90102C0660F771F5E
:102DF0008A95E2F7CB018095842385B98FE39FE123
:102E00000197F1F700C000008281883078F44BB15F
:102E1000877021E030E0D90102C0AA0FBB1F8A955C
:102E2000E2F7CD01809584238BB90EC045B1877040
:102E300021E030E0890102C0000F111F8A95E2F7FE
:102E4000C8018095842385B98381883078F44BB19B
:102E5000877021E030E0B90102C0660F771F8A95C4
:102E6000E2F7CB01809584238BB90EC045B1877002
:102E700021E030E0D90102C0AA0FBB1F8A95E2F71A
:102E8000CD018095842385B98481883078F44BB155
:102E9000877021E030E0890102C0000F111F8A9580
:102EA000E2F7C801809584238BB90EC045B18770C5
:102EB00021E030E0B90102C0660F771F8A95E2F782
:102EC000CB018095842385B98581883070F44BB11E
:102ED000877021E030E0D90102C0AA0FBB1F8A959C
:102EE000E2F7CD01842B8BB90DC045B1877021E08D
:102EF00030E0890102C0000F111F8A95E2F7C80176
:102F0000842B85B98081883078F44BB1877021E0BB
:102F100030E0B90102C0660F771F8A95E2F7CB0156
:102F2000809584238BB90EC045B1877021E030E0D5
:102F3000D90102C0AA0FBB1F8A95E2F7CD01809587
:102F4000842385B98181883070F44BB1877021E08A
:102F500030E0890102C0000F111F8A95E2F7C80115
:102F6000842B8BB90DC045B1877021E030E0B901E9
:102F700002C0660F771F8A95E2F7CB01842B85B9D3
:102F800075E07A95F1F700008181883078F44BB1D3
:102F9000877021E030E0D90102C0AA0FBB1F8A95DB
:102FA000E2F7CD01809584238BB90EC045B18770BF
:102FB00021E030E0890102C0000F111F8A95E2F77D
:102FC000C8018095842385B98FE193E00197F1F7DB
:102FD00000C000008281883078F44BB1877021E016
:102FE00030E0D90102C0AA0FBB1F8A95E2F7CD01DC
:102FF000809584238BB90EC045B1877021E030E005
:10300000890102C0000F111F8A95E2F7C80180955F
:10301000842385B98381883070F44BB1877021E0B7
:1030200030E0B90102C0660F771F8A95E2F7CB0145
:10303000842B8BB90DC045B1877021E030E0D901F8
:1030400002C0AA0FBB1F8A95E2F7CD01842B85B978
:103050008481883078F44BB1877021E030E08901B9
:1030600002C0000F111F8A95E2F7C80180958423E2
:103070008BB90EC045B1877021E030E0B90102C0C4
:10308000660F771F8A95E2F7CB018095842385B977
:103090008581883070F44BB1877021E030E0D90130
:1030A00002C0AA0FBB1F8A95E2F7CD01842B8BB912
:1030B0000DC045B1877021E030E0890102C0000FEA
:1030C000111F8A95E2F7C801842B85B98181883068
:1030D00070F44BB1877021E030E0B90102C0660F97
:1030E000771F8A95E2F7CB01842B8BB90DC045B1D0
:1030F000877021E030E0D90102C0AA0FBB1F8A957A
:10310000E2F7CD01842B85B9B5E0BA95F1F700005F
:103110008181883078F44BB1877021E030E08901FB
:1031200002C0000F111F8A95E2F7C8018095842321
:103130008BB90EC045B1877021E030E0B90102C003
:10314000660F771F8A95E2F7CB018095842385B9B6
:103150008FE39FE10197F1F700C00000298122234E
:1031600009F4DDC3DE0111967D0140E050E081E00D
:1031700090E005C0D7012C91222309F4D0C340313F
:10318000510519F02A3009F078C12281283068F4FD
:103190003BB12770BC0102C0660F771F2A95E2F78A
:1031A000262F209523232BB90CC035B12770BC01E5
:1031B00002C0660F771F2A95E2F7262F209523235A
:1031C00025B92381283068F43BB12770BC0102C0C7
:1031D000660F771F2A95E2F7262F209523232BB918
:1031E0000CC035B12770BC0102C0660F771F2A954D
:1031F000E2F7262F2095232325B92481283060F477
:103200006BB127708C0102C0000F111F2A95E2F7E5
:103210009801262B2BB90BC065B12770DC0102C0C9
:10322000AA0FBB1F2A95E2F79D01262B25B9258100
:10323000283060F46BB127708C0102C0000F111FA1
:103240002A95E2F79801262B2BB90BC065B12770A0
:10325000DC0102C0AA0FBB1F2A95E2F79D01262BB5
:1032600025B92081283068F43BB12770BC0102C029
:10327000660F771F2A95E2F7262F209523232BB977
:103280000CC035B12770BC0102C0660F771F2A95AC
:10329000E2F7262F2095232325B92181283060F4D9
:1032A0006BB127708C0102C0000F111F2A95E2F745
:1032B0009801262B2BB90BC065B12770DC0102C029
:1032C000AA0FBB1F2A95E2F79D01262B25B9B5E071
:1032D000BA95F1F700002181283068F43BB12770DE
:1032E000BC0102C0660F771F2A95E2F7262F2095B2
:1032F00023232BB90CC035B12770BC0102C0660F67
:10330000771F2A95E2F7262F2095232325B9AFE1D1
:10331000B3E01197F1F700C000002281283068F473
:103320003BB12770BC0102C0660F771F2A95E2F7F8
:10333000262F209523232BB90CC035B12770BC0153
:1033400002C0660F771F2A95E2F7262F20952323C8
:1033500025B92381283068F43BB12770BC0102C035
:10336000660F771F2A95E2F7262F209523232BB986
:103370000CC035B12770BC0102C0660F771F2A95BB
:10338000E2F7262F2095232325B92481283068F4DD
:103390003BB12770BC0102C0660F771F2A95E2F788
:1033A000262F209523232BB90CC035B12770BC01E3
:1033B00002C0660F771F2A95E2F7262F2095232358
:1033C00025B92581283068F43BB12770BC0102C0C3
:1033D000660F771F2A95E2F7262F209523232BB916
:1033E0000CC035B12770BC0102C0660F771F2A954B
:1033F000E2F7262F2095232325B92181283060F478
:103400006BB127708C0102C0000F111F2A95E2F7E3
:103410009801262B2BB90BC065B12770DC0102C0C7
:10342000AA0FBB1F2A95E2F79D01262B25B9B5E00F
:10343000BA95F1F700002181283068F43BB127707C
:10344000BC0102C0660F771F2A95E2F7262F209550
:1034500023232BB90CC035B12770BC0102C0660F05
:10346000771F2A95E2F7262F2095232325B9AFE36E
:10347000BFE11197F1F700C00000D7012D917D0148
:10348000622F328124FF18C0383058F47BB1377076
:103490008C0102C0000F111F3A95E2F7072B0BB900
:1034A00026C075B137708C0102C0000F111F3A950C
:1034B000E2F7072B05B91BC0383068F47BB13770D1
:1034C0008C0102C0000F111F3A95E2F7302F3095A2
:1034D00037233BB90CC075B137708C0102C0000FA7
:1034E000111F3A95E2F7302F3095372335B93381E4
:1034F00025FF18C0383058F47BB137708C0102C0FA
:10350000000F111F3A95E2F7072B0BB926C075B1D2
:1035100037708C0102C0000F111F3A95E2F7072B9C
:1035200005B91BC0383068F47BB137708C0102C01C
:10353000000F111F3A95E2F7302F309537233BB932
:103540000CC075B137708C0102C0000F111F3A9585
:10355000E2F7302F3095372335B9348126FF18C074
:10356000383058F47BB137708C0102C0000F111F46
:103570003A95E2F7072B0BB926C075B137708C016D
:1035800002C0000F111F3A95E2F7072B05B91BC0C7
:10359000383068F47BB137708C0102C0000F111F06
:1035A0003A95E2F7302F309537233BB90CC075B10F
:1035B00037708C0102C0000F111F3A95E2F7302FCF
:1035C0003095372335B935816623C4F4383058F443
:1035D0001BB13770BC0102C0660F771F3A95E2F746
:1035E000612B6BB926C015B13770BC0102C0660FE4
:1035F000771F3A95E2F7612B65B91BC0383068F444
:103600006BB137708C0102C0000F111F3A95E2F7C1
:10361000302F309536233BB90CC065B137708C0123
:1036200002C0000F111F3A95E2F7302F3095362374
:1036300035B93081383058F41BB13770BC0102C045
:10364000660F771F3A95E2F7612B6BB90AC015B187
:103650003770BC0102C0660F771F3A95E2F7612B05
:1036600065B93181383058F41BB13770BC0102C0E4
:10367000660F771F3A95E2F7612B6BB90AC015B157
:103680003770BC0102C0660F771F3A95E2F7612BD5
:1036900065B9B5E0BA95F1F700003181383068F4CA
:1036A0006BB137708C0102C0000F111F3A95E2F721
:1036B000302F309536233BB90CC065B137708C0183
:1036C00002C0000F111F3A95E2F7302F30953623D4
:1036D00035B9AFE1B3E01197F1F700C000003281D6
:1036E00020FF18C0383058F41BB13770BC0102C03D
:1036F000660F771F3A95E2F7612B6BB926C015B1BB
:103700003770BC0102C0660F771F3A95E2F7612B54
:1037100065B91BC0383068F46BB137708C0102C0DA
:10372000000F111F3A95E2F7302F309536233BB941
:103730000CC065B137708C0102C0000F111F3A95A3
:10374000E2F7302F3095362335B9338121FF18C089
:10375000383058F41BB13770BC0102C0660F771FB8
:103760003A95E2F7612B6BB926C015B13770BC01F1
:1037700002C0660F771F3A95E2F7612B65B91BC04F
:10378000383068F46BB137708C0102C0000F111F24
:103790003A95E2F7302F309536233BB90CC065B12E
:1037A00037708C0102C0000F111F3A95E2F7302FDD
:1037B0003095362335B9348122FF18C0383058F49B
:1037C0001BB13770BC0102C0660F771F3A95E2F754
:1037D000612B6BB926C015B13770BC0102C0660FF2
:1037E000771F3A95E2F7612B65B91BC0383068F452
:1037F0006BB137708C0102C0000F111F3A95E2F7D0
:10380000302F309536233BB90CC065B137708C0131
:1038100002C0000F111F3A95E2F7302F3095362382
:1038200035B9358123FF1AC0383060F46BB1377079
:103830008C0102C0000F111F3A95E2F79801262B68
:103840002BB927C065B13770DC0102C0AA0FBB1FBE
:103850003A95E2F79D01262B25B91BC0383068F454
:103860006BB137708C0102C0000F111F3A95E2F75F
:103870009801209526232BB90CC065B13770DC0167
:1038800002C0AA0FBB1F3A95E2F79D01209526239F
:1038900025B92181283060F46BB127708C0102C0FA
:1038A000000F111F2A95E2F79801262B2BB90BC0A8
:1038B00065B12770DC0102C0AA0FBB1F2A95E2F791
:1038C0009D01262B25B9B5E0BA95F1F700002181BD
:1038D000283068F43BB12770BC0102C0660F771F27
:1038E0002A95E2F7262F209523232BB90CC035B15A
:1038F0002770BC0102C0660F771F2A95E2F7262FBA
:103900002095232325B9AFE3BFE11197F1F700C05C
:1039100000004F5F5F4F4032510509F02BCC009102
:10392000560110915701F8018281883078F44BB12B
:10393000877021E030E0B90102C0660F771F8A95D9
:10394000E2F7CB01809584238BB90EC045B1877017
:1039500021E030E0D90102C0AA0FBB1F8A95E2F72F
:10396000CD018095842385B9F8018381883078F46E
:103970004BB1877021E030E0B90102C0660F771FBC
:103980008A95E2F7CB01809584238BB90EC045B1AF
:10399000877021E030E0D90102C0AA0FBB1F8A95D1
:1039A000E2F7CD018095842385B9F80184818830C0
:1039B00078F44BB1877021E030E0B90102C0660FA6
:1039C000771F8A95E2F7CB01809584238BB90EC0CF
:1039D00045B1877021E030E0D90102C0AA0FBB1FBA
:1039E0008A95E2F7CD018095842385B9F801858118
:1039F000883070F44BB1877021E030E0B90102C02B
:103A0000660F771F8A95E2F7CB01842B8BB90DC027
:103A100045B1877021E030E0D90102C0AA0FBB1F79
:103A20008A95E2F7CD01842B85B9F8018081883031
:103A300078F44BB1877021E030E0B90102C0660F25
:103A4000771F8A95E2F7CB01809584238BB90EC04E
:103A500045B1877021E030E0D90102C0AA0FBB1F39
:103A60008A95E2F7CD018095842385B9F80181819B
:103A7000883070F44BB1877021E030E0B90102C0AA
:103A8000660F771F8A95E2F7CB01842B8BB90DC0A7
:103A900045B1877021E030E0D90102C0AA0FBB1FF9
:103AA0008A95E2F7CD01842B85B9B5E0BA95F1F797
:103AB0000000F8018181883078F44BB1877021E0F3
:103AC00030E0B90102C0660F771F8A95E2F7CB019B
:103AD000809584238BB90EC045B1877021E030E01A
:103AE000D90102C0AA0FBB1F8A95E2F7CD018095CC
:103AF000842385B9EFE1F3E03197F1F700C00000CE
:103B0000D80112968C91883078F44BB1877021E0FF
:103B100030E0F90102C0EE0FFF1F8A95E2F7CF01F6
:103B2000809584238BB90EC045B1877021E030E0C9
:103B3000B90102C0660F771F8A95E2F7CB01809525
:103B4000842385B9D80113968C91883078F44BB1D1
:103B5000877021E030E0F90102C0EE0FFF1F8A9567
:103B6000E2F7CF01809584238BB90EC045B18770F1
:103B700021E030E0B90102C0660F771F8A95E2F7B5
:103B8000CB018095842385B9D80114968C91883017
:103B900078F44BB1877021E030E0F90102C0EE0FFC
:103BA000FF1F8A95E2F7CF01809584238BB90EC061
:103BB00045B1877021E030E0B90102C0660F771F80
:103BC0008A95E2F7CB018095842385B9D8011596B3
:103BD0008C91883078F44BB1877021E030E0F901A6
:103BE00002C0EE0FFF1F8A95E2F7CF018095842374
:103BF0008BB90EC045B1877021E030E0B90102C039
:103C0000660F771F8A95E2F7CB018095842385B9EB
:103C1000D80111968C91883070F44BB1877021E0F7
:103C200030E0F90102C0EE0FFF1F8A95E2F7CF01E5
:103C3000842B8BB90DC045B1877021E030E0B9010C
:103C400002C0660F771F8A95E2F7CB01842B85B9F6
:103C500075E07A95F1F70000D80111968C918830C3
:103C600078F44BB1877021E030E0F90102C0EE0F2B
:103C7000FF1F8A95E2F7CF01809584238BB90EC090
:103C800045B1877021E030E0B90102C0660F771FAF
:103C90008A95E2F7CB018095842385B98FE39FE174
:103CA0000197F1F700C000006AECC8010E94D7003C
:103CB0002E81222309F40BC4FE01369640E050E029
:103CC00081E090E004C02081222309F400C4403147
:103CD000510519F02A3009F091C1D80112962C91A2
:103CE000283068F43BB12770BC0102C0660F771F13
:103CF0002A95E2F7262F209523232BB90CC035B146
:103D00002770BC0102C0660F771F2A95E2F7262FA5
:103D10002095232325B9D80113962C91283068F4D7
:103D20003BB12770BC0102C0660F771F2A95E2F7EE
:103D3000262F209523232BB90CC035B12770BC0149
:103D400002C0660F771F2A95E2F7262F20952323BE
:103D500025B9D80114962C91283060F46BB12770E6
:103D6000DC0102C0AA0FBB1F2A95E2F79D01262B9A
:103D70002BB90BC065B12770DC0102C0AA0FBB1FB5
:103D80002A95E2F79D01262B25B9D80115962C918D
:103D9000283060F46BB12770DC0102C0AA0FBB1F92
:103DA0002A95E2F79D01262B2BB90BC065B1277030
:103DB000DC0102C0AA0FBB1F2A95E2F79D01262B4A
:103DC00025B9D8012C91283068F43BB12770BC018B
:103DD00002C0660F771F2A95E2F7262F209523232E
:103DE0002BB90CC035B12770BC0102C0660F771F1C
:103DF0002A95E2F7262F2095232325B9D80111967D
:103E00002C91283060F46BB12770DC0102C0AA0F3E
:103E1000BB1F2A95E2F79D01262B2BB90BC065B17C
:103E20002770DC0102C0AA0FBB1F2A95E2F79D0193
:103E3000262B25B9B5E0BA95F1F70000D801119607
:103E40002C91283068F43BB12770BC0102C0660F8A
:103E5000771F2A95E2F7262F209523232BB90CC034
:103E600035B12770BC0102C0660F771F2A95E2F7B3
:103E7000262F2095232325B9AFE1B3E01197F1F761
:103E800000C00000D80112962C91283068F43BB194
:103E90002770BC0102C0660F771F2A95E2F7262F14
:103EA000209523232BB90CC035B12770BC0102C06B
:103EB000660F771F2A95E2F7262F2095232325B931
:103EC000D80113962C91283068F43BB12770BC01BF
:103ED00002C0660F771F2A95E2F7262F209523232D
:103EE0002BB90CC035B12770BC0102C0660F771F1B
:103EF0002A95E2F7262F2095232325B9D801149679
:103F00002C91283068F43BB12770BC0102C0660FC9
:103F1000771F2A95E2F7262F209523232BB90CC073
:103F200035B12770BC0102C0660F771F2A95E2F7F2
:103F3000262F2095232325B9D80115962C912830BA
:103F400068F43BB12770BC0102C0660F771F2A9549
:103F5000E2F7262F209523232BB90CC035B127700B
:103F6000BC0102C0660F771F2A95E2F7262F209525
:103F7000232325B9D80111962C91283060F46BB118
:103F80002770DC0102C0AA0FBB1F2A95E2F79D0132
:103F9000262B2BB90BC065B12770DC0102C0AA0F1C
:103FA000BB1F2A95E2F79D01262B25B9B5E0BA95EE
:103FB000F1F70000D80111962C91283068F43BB13C
:103FC0002770BC0102C0660F771F2A95E2F7262FE3
:103FD000209523232BB90CC035B12770BC0102C03A
:103FE000660F771F2A95E2F7262F2095232325B900
:103FF000AFE3BFE11197F1F700C000002191622FFC
:10400000D80112963C9124FF18C0383058F47BB187
:104010003770DC0102C0AA0FBB1F3A95E2F7A72B4D
:10402000ABB926C075B13770DC0102C0AA0FBB1F47
:104030003A95E2F7A72BA5B91BC0383068F47BB1DD
:104040003770DC0102C0AA0FBB1F3A95E2F73A2F86
:10405000309537233BB90CC075B13770DC0102C015
:10406000AA0FBB1F3A95E2F73A2F3095372335B99F
:10407000D80113963C9125FF18C0383058F47BB115
:104080003770DC0102C0AA0FBB1F3A95E2F7A72BDD
:10409000ABB926C075B13770DC0102C0AA0FBB1FD7
:1040A0003A95E2F7A72BA5B91BC0383068F47BB16D
:1040B0003770DC0102C0AA0FBB1F3A95E2F73A2F16
:1040C000309537233BB90CC075B13770DC0102C0A5
:1040D000AA0FBB1F3A95E2F73A2F3095372335B92F
:1040E000D80114963C9126FF18C0383058F47BB1A3
:1040F0003770DC0102C0AA0FBB1F3A95E2F7A72B6D
:10410000ABB926C075B13770DC0102C0AA0FBB1F66
:104110003A95E2F7A72BA5B91BC0383068F47BB1FC
:104120003770DC0102C0AA0FBB1F3A95E2F73A2FA5
:10413000309537233BB90CC075B13770DC0102C034
:10414000AA0FBB1F3A95E2F73A2F3095372335B9BE
:10415000D80115963C916623C4F4383058F4ABB1BD
:104160003770BC0102C0660F771F3A95E2F76A2BE1
:104170006BB926C0A5B13770BC0102C0660F771FAE
:104180003A95E2F76A2B65B91BC0383068F46BB119
:104190003770DC0102C0AA0FBB1F3A95E2F73A2F35
:1041A000309536233BB90CC065B13770DC0102C0D5
:1041B000AA0FBB1F3A95E2F73A2F3095362335B94F
:1041C000D8013C91383058F4ABB13770BC0102C013
:1041D000660F771F3A95E2F76A2B6BB90AC0A5B153
:1041E0003770BC0102C0660F771F3A95E2F76A2B61
:1041F00065B9D80111963C91383058F4ABB137709D
:10420000BC0102C0660F771F3A95E2F76A2B6BB9C3
:104210000AC0A5B13770BC0102C0660F771F3A957E
:10422000E2F76A2B65B9B5E0BA95F1F70000D8015D
:1042300011963C91383068F46BB13770DC0102C0E4
:10424000AA0FBB1F3A95E2F73A2F309536233BB9B8
:104250000CC065B13770DC0102C0AA0FBB1F3A95D4
:10426000E2F73A2F3095362335B9AFE1B3E0119735
:10427000F1F700C00000D80112963C9120FF18C051
:10428000383058F4ABB13770BC0102C0660F771FED
:104290003A95E2F76A2B6BB926C0A5B13770BC011D
:1042A00002C0660F771F3A95E2F76A2B65B91BC00B
:1042B000383068F46BB13770DC0102C0AA0FBB1F45
:1042C0003A95E2F73A2F309536233BB90CC065B1E9
:1042D0003770DC0102C0AA0FBB1F3A95E2F73A2FF4
:1042E0003095362335B9D80113963C9121FF18C07B
:1042F000383058F4ABB13770BC0102C0660F771F7D
:104300003A95E2F76A2B6BB926C0A5B13770BC01AC
:1043100002C0660F771F3A95E2F76A2B65B91BC09A
:10432000383068F46BB13770DC0102C0AA0FBB1FD4
:104330003A95E2F73A2F309536233BB90CC065B178
:104340003770DC0102C0AA0FBB1F3A95E2F73A2F83
:104350003095362335B9D80114963C9122FF18C008
:10436000383058F4ABB13770BC0102C0660F771F0C
:104370003A95E2F76A2B6BB926C0A5B13770BC013C
:1043800002C0660F771F3A95E2F76A2B65B91BC02A
:10439000383068F46BB13770DC0102C0AA0FBB1F64
:1043A0003A95E2F73A2F309536233BB90CC065B108
:1043B0003770DC0102C0AA0FBB1F3A95E2F73A2F13
:1043C0003095362335B9D80115963C9123FF1AC094
:1043D000383060F46BB13770DC0102C0AA0FBB1F2C
:1043E0003A95E2F79D01262B2BB927C065B13770AE
:1043F000DC0102C0AA0FBB1F3A95E2F79D01262BF4
:1044000025B91BC0383068F46BB13770DC0102C0CD
:10441000AA0FBB1F3A95E2F79D01209526232BB9E1
:104420000CC065B13770DC0102C0AA0FBB1F3A9502
:10443000E2F79D012095262325B9D80111962C91EC
:10444000283060F46BB12770DC0102C0AA0FBB1FDB
:104450002A95E2F79D01262B2BB90BC065B1277079
:10446000DC0102C0AA0FBB1F2A95E2F79D01262B93
:1044700025B9B5E0BA95F1F70000D80111962C9155
:10448000283068F43BB12770BC0102C0660F771F6B
:104490002A95E2F7262F209523232BB90CC035B19E
:1044A0002770BC0102C0660F771F2A95E2F7262FFE
:1044B0002095232325B9AFE3BFE11197F1F700C0A1
:1044C00000004F5F5F4F4032510509F0FCCB2A9648
:1044D0000FB6F894DEBF0FBECDBFDF91CF911F9115
:1044E0000F91FF90EF90089514B81AB88FEF85B927
:1044F0008BB90E94B000E1E8F0E0808182608083A7
:104500000E9489030E94F812FDCF0F931F93CF934F
:10451000DF938230910510F482E090E0E091680131
:10452000F091690120E030E0A0E0B0E0309719F1AF
:10453000408151810281138148175907C8F08417BF
:10454000950769F4109731F012960C931297139611
:104550001C9327C0009368011093690122C02115A4
:10456000310519F04217530718F49A01BD01EF0104
:10457000DF01F801DBCF21153105F9F0281B390BDC
:104580002430310580F48A819B816115710521F009
:10459000FB019383828304C0909369018093680137
:1045A000FE01329644C0FE01E20FF31F8193919306
:1045B00022503109398328833AC020916601309115
:1045C0006701232B41F420910201309103013093C4
:1045D00067012093660120910001309101012115AE
:1045E000310541F42DB73EB74091040150910501CA
:1045F000241B350BE0916601F0916701E217F30788
:10460000A0F42E1B3F0B2817390778F0AC014E5F42
:104610005F4F2417350748F04E0F5F1F5093670117
:10462000409366018193919302C0E0E0F0E0CF01F6
:10463000DF91CF911F910F910895CF93DF93009752
:1046400009F481C0FC01329713821282A0916801A3
:10465000B0916901109781F420813181820F931FFD
:1046600020916601309167012817390751F5F093C1
:104670006701E093660167C0ED0120E030E0CE17EE
:10468000DF0740F44A815B819E0141155105F1F03D
:10469000EA01F5CFD383C28340815181840F951FF6
:1046A000C817D90759F488819981840F951F0296FC
:1046B000918380838A819B81938382832115310535
:1046C00029F4F0936901E09368013DC0E901FB839F
:1046D000EA8349915991C40FD51FEC17FD0761F486
:1046E00080819181840F951F0296E90199838883C7
:1046F000828193819B838A83E0E0F0E012968D9122
:104700009C911397009719F0FD01DC01F7CF8D9173
:104710009C9111979D012E5F3F4F820F931F209117
:104720006601309167012817390769F4309729F439
:10473000109269011092680102C013821282B09334
:104740006701A0936601DF91CF910895AEE0B0E0DC
:10475000ECEAF3E20C9467260D891E8986E08C83CF
:104760001A8309838FEF9FE79E838D83AE01475E97
:104770005F4F6F89788DCE0101960E94C823EF812B
:10478000F885E00FF11F10822E96E4E00C9483264A
:10479000ABE0B0E0EEECF3E20C9459266C017B0147
:1047A0008A01FC0117821682838181FFCCC1CE0170
:1047B00001963C01F6019381F70193FD859193FFEA
:1047C00081917F01882309F4BAC1853239F493FDC0
:1047D000859193FF81917F01853229F4B60190E0A4
:1047E0000E94BF25E7CF912C212C312CFFE1F3153E
:1047F000D8F08B3279F038F4803279F08332A1F43A
:10480000232D20611DC08D3261F0803369F4232D8A
:10481000216016C0832D8260382EE32DE4603E2E89
:104820002AC0F32DF8601DC037FC2DC020ED280FE5
:104830002A3040F08E32B9F436FC81C1232D206439
:10484000322E19C036FE06C08AE0989E200D112433
:10485000922E11C0EAE02E9E200D1124222EF32D5F
:10486000F0623F2E08C08C3621F4832D8068382EEC
:1048700002C0883641F4F70193FD859193FF819141
:104880007F018111B3CF982F9F7D9554933028F4E9
:104890000C5F1F4F9FE399830DC0833631F0833740
:1048A00071F0833509F059C021C0F80180818983F6
:1048B0000E5F1F4F88248394912C530113C028014D
:1048C000F2E04F0E511CF801A080B18036FE03C00B
:1048D000692D70E002C06FEF7FEFC5010E94B42523
:1048E0004C018201F32DFF773F2E16C0280122E0F4
:1048F000420E511CF801A080B18036FE03C0692D24
:1049000070E002C06FEF7FEFC5010E94A9254C0146
:10491000F32DF0683F2E820133FC1BC0822D90E006
:1049200088169906B0F4B60180E290E00E94BF2597
:104930002A94F4CFF50137FC859137FE81915F0110
:10494000B60190E00E94BF2521102A9421E0821A2E
:1049500091088114910471F7E8C0843611F089360A
:1049600041F5F80137FE07C0608171818281938132
:104970000C5F1F4F08C060817181072E000C880BEF
:10498000990B0E5F1F4FF32DFF763F2E97FF09C047
:1049900090958095709561957F4F8F4F9F4FF068F0
:1049A0003F2E2AE030E0A3010E94FB25882E8618C6
:1049B00045C0853731F4232D2F7EB22E2AE030E01A
:1049C00025C0932D997FB92E8F36C1F018F4883504
:1049D00079F0B5C0803719F0883721F0B0C0E92FE1
:1049E000E061BE2EB4FE0DC0FB2DF460BF2E09C0E9
:1049F00034FE0AC0292F2660B22E06C028E030E01F
:104A000005C020E130E002C020E132E0F801B7FE4D
:104A100007C060817181828193810C5F1F4F06C046
:104A20006081718180E090E00E5F1F4FA3010E94C2
:104A3000FB25882E8618FB2DFF773F2E36FE0DC0F6
:104A4000232D2E7FA22E891458F434FE0BC032FC85
:104A500009C0832D8E7EA82E05C0B82CA32C03C0C0
:104A6000B82C01C0B92CA4FE0FC0FE01E80DF11D49
:104A70008081803321F49A2D997EA92E09C0A2FE4F
:104A800006C0B394B39404C08A2D867809F0B39419
:104A9000A3FC11C0A0FE06C0B21488F4280C922C0E
:104AA0009B180EC0B21460F4B60180E290E00E9440
:104AB000BF25B394F7CFB21418F42B1802C0982C6A
:104AC000212CA4FE10C0B60180E390E00E94BF2517
:104AD000A2FE17C0A1FC03C088E790E002C088E5F1
:104AE00090E0B6010CC08A2D867859F0A1FE02C074
:104AF0008BE201C080E2A7FC8DE2B60190E00E944B
:104B0000BF25891438F4B60180E390E00E94BF25E8
:104B10009A94F7CF8A94F301E80DF11D8081B601D4
:104B200090E00E94BF258110F5CF222009F442CEEB
:104B3000B60180E290E00E94BF252A94F6CFF601EC
:104B40008681978102C08FEF9FEF2B96E2E10C9454
:104B50007526FC010590615070400110D8F78095D2
:104B600090958E0F9F1F0895FC0161507040019039
:104B70000110D8F7809590958E0F9F1F08950F9381
:104B80001F93CF93DF93FB01238121FD03C08FEFA0
:104B90009FEF2CC022FF16C04681578124813581AA
:104BA0004217530744F4A081B1819D012F5F3F4F0D
:104BB000318320838C93268137812F5F3F4F37834A
:104BC000268314C08B01EC01FB010084F185E02DEC
:104BD0000995892BE1F6D80116968D919C9117972E
:104BE000019617969C938E931697CE01DF91CF91E5
:104BF0001F910F910895FA01AA27283051F1203111
:104C000081F1E8946F936E7F6E5F7F4F8F4F9F4F60
:104C1000AF4FB1E03ED0B4E03CD0670F781F891FA2
:104C20009A1FA11D680F791F8A1F911DA11D6A0F70
:104C3000711D811D911DA11D20D009F468943F9123
:104C40002AE0269F11243019305D3193DEF6CF0122
:104C50000895462F4770405D4193B3E00FD0C9F7E8
:104C6000F6CF462F4F70405D4A3318F0495D31FD55
:104C70004052419302D0A9F7EACFB4E0A6959795A8
:104C8000879577956795BA95C9F70097610571057E
:104C900008959B01AC010A2E0694579547953795C8
:104CA0002795BA95C9F7620F731F841F951FA01D22
:104CB00008952F923F924F925F926F927F928F92C0
:104CC0009F92AF92BF92CF92DF92EF92FF920F939B
:104CD0001F93CF93DF93CDB7DEB7CA1BDB0B0FB6A5
:104CE000F894DEBF0FBECDBF09942A883988488862
:104CF0005F846E847D848C849B84AA84B984C884F8
:104D0000DF80EE80FD800C811B81AA81B981CE0FEE
:104D1000D11D0FB6F894DEBF0FBECDBFED010895D3
:044D2000F894FFCF35
:104D240000007001200054656D702E20202020208A
:104D340020202030204348756D696461646520201B
:104D440020202030202525000000000000005A65A6
:104D54006475696E6F202020204448543131496EB7
:104D6400696369616E646F202000253464004552D4
:044D7400524F00009A
:00000001FF
