:100000000C9434000C9451000C9451000C94510049
:100010000C9451000C9451000C9451000C9451001C
:100020000C9451000C9451000C9451000C9451000C
:100030000C9451000C9451000C9451000C945100FC
:100040000C9451000C9451000C9451000C945100EC
:100050000C9451000C9451000C9451000C945100DC
:100060000C9451000C94510011241FBECFEFD8E026
:10007000DEBFCDBF21E0A0E0B1E001C01D92A43100
:10008000B207E1F711E0A0E0B1E0E0E6F1E002C084
:1000900005900D92A030B107D9F70E949F000C94F3
:1000A000AE000C940000CF93C82F8A3019F48DE075
:1000B0000E945300E0ECF0E0808185FFFDCFC0930B
:1000C000C60080E090E0CF910895E0ECF0E0808100
:1000D0008823ECF78091C60090E00895E0E0F1E01D
:1000E00083E590E09187808785E690E0938782871B
:1000F00083E08383158614861092C50087E680937B
:10010000C400A0ECB0E08C918D7F8C9386E080934E
:10011000C20088E18093C100AEE0B1E01396FC9389
:10012000EE931297ED93FC930895569A84B58260EE
:1001300084BD84B5806484BD8FE987BD089514B8FB
:100140001AB88FEF85B98BB90E946E00E1E8F0E034
:100150008081826080830E949500FDCFF894FFCF5C
:00000001FF
