:100000000C9434000C9451000C9451000C94510049
:100010000C9451000C9451000C9451000C9451001C
:100020000C9451000C9451000C9451000C9451000C
:100030000C9451000C9451000C9451000C945100FC
:100040000C9451000C9451000C9451000C945100EC
:100050000C9451000C9451000C9451000C945100DC
:100060000C9451000C94510011241FBECFEFD8E026
:10007000DEBFCDBF11E0A0E0B1E0E8E5FCE002C0EA
:1000800005900D92A631B107D9F721E0A6E1B1E0C4
:1000900001C01D92A233B207E1F70E9410020C9436
:1000A0002A060C940000CF93C82F8A3019F48DE0F3
:1000B0000E945300E0ECF0E0808185FFFDCFC0930B
:1000C000C60080E090E0CF910895E0ECF0E0808100
:1000D0008823ECF78091C60090E00895009741F0E6
:1000E000EFE9FFE03197F1F700C000000197C1F799
:1000F0000895009731F025E02A95F1F70000019767
:10010000D1F70895EAE1F1E083E590E091878087F7
:1001100085E690E09387828783E083831586148643
:100120001092C50087E68093C400A0ECB0E08C91EB
:100130008D7F8C9386E08093C20088E18093C1001C
:10014000ACE2B1E01396FC93EE931297ED93FC931F
:100150000895529A259A84E090E00E942B0222E0B2
:10016000FC01208323E021839093190180931801DF
:1001700081E090E00E942B022DE0FC01208390930F
:100180001701809316012D9A0895CF93DF93C091A4
:100190001801D09119018881883070F44BB18770B3
:1001A00021E030E0B90102C0660F771F8A95E2F7BF
:1001B000CB01842B8BB90DC045B1877021E030E0B5
:1001C000F90102C0EE0FFF1F8A95E2F7CF01842BE1
:1001D00085B98AE090E00E9479008881883078F4BF
:1001E0004BB1877021E030E0B90102C0660F771F84
:1001F0008A95E2F7CB01809584238BB90EC045B177
:10020000877021E030E0F90102C0EE0FFF1F8A95F0
:10021000E2F7CF018095842385B94981842F8770C7
:1002200021E030E002C0220F331F8A95E2F7483008
:1002300010F489B101C083B190E082239323892B0C
:10024000B1F310928500109284004981842F877049
:1002500021E030E002C0220F331F8A95E2F74830D8
:1002600010F489B101C083B190E082239323892BDC
:10027000B1F720918400309185003B832A83AFE958
:10028000B6E40E941C02EC01D695C795D295C295A2
:10029000CF70CD27DF70CD27DF93CF9386E091E03D
:1002A0009F938F930E944C038CE390E00E946E001A
:1002B000CE01880F991FCC0FDD1FCC0FDD1FCC0F97
:1002C000DD1F8C0F9D1FC0911601D0911701288151
:1002D0000F900F900F900F90283060F44BB1277063
:1002E00050E0022E02C0559547950A94E2F740FD72
:1002F0000DC060C045B1277050E0022E02C0559578
:1003000047950A94E2F740FD0FC061C06BB141E030
:1003100050E0FA0102C0EE0FFF1F2A95E2F79F019D
:10032000209526232BB90DC065B141E050E0FA01BC
:1003300002C0EE0FFF1F2A95E2F79F0120952623AA
:1003400025B90E946E008881883060F42BB18770D7
:1003500030E0082E02C0359527950A94E2F720FD7B
:100360000DC042C025B1877030E0082E02C035951F
:1003700027950A94E2F720FD0FC043C04BB121E05E
:1003800030E0B90102C0660F771F8A95E2F7CB0112
:10039000809584238BB941C045B121E030E0F9015B
:1003A00002C0EE0FFF1F8A95E2F7CF0180958423EC
:1003B00085B933C06BB141E050E0FA0102C0EE0FE5
:1003C000FF1F2A95E2F79F01262B2BB9BACF65B103
:1003D00041E050E0FA0102C0EE0FFF1F2A95E2F75C
:1003E0009F01262B25B9ADCF4BB121E030E0B901FB
:1003F00002C0660F771F8A95E2F7CB01842B8BB979
:100400000CC045B121E030E0F90102C0EE0FFF1F42
:100410008A95E2F7CF01842B85B9DF91CF910895BA
:100420000E948200E1E8F0E08081826080830E9487
:10043000A9000E94C500FDCFA29FB001B39FC001DB
:10044000A39F700D811D1124911DB29F700D811D00
:100450001124911D08950F931F93CF93DF93823042
:10046000910510F482E090E0E0912A01F0912B01D7
:1004700020E030E0A0E0B0E0309719F140815181F8
:100480000281138148175907C8F08417950769F44A
:10049000109731F012960C93129713961C9327C065
:1004A00000932A0110932B0122C02115310519F068
:1004B0004217530718F49A01BD01EF01DF01F8015B
:1004C000DBCF21153105F9F0281B390B243031051C
:1004D00080F48A819B816115710521F0FB01938372
:1004E000828304C090932B0180932A01FE013296EF
:1004F00044C0FE01E20FF31F819391932250310912
:10050000398328833AC02091280130912901232B77
:1005100041F420910201309103013093290120938D
:10052000280120910001309101012115310541F48C
:100530002DB73EB74091040150910501241B350BA6
:10054000E0912801F0912901E217F307A0F42E1B96
:100550003F0B2817390778F0AC014E5F5F4F241727
:10056000350748F04E0F5F1F509329014093280133
:100570008193919302C0E0E0F0E0CF01DF91CF9151
:100580001F910F910895CF93DF93009709F481C0D5
:10059000FC01329713821282A0912A01B0912B01A3
:1005A000109781F420813181820F931F20912801BF
:1005B000309129012817390751F5F0932901E0936B
:1005C000280167C0ED0120E030E0CE17DF0740F4DE
:1005D0004A815B819E0141155105F1F0EA01F5CF99
:1005E000D383C28340815181840F951FC817D907D7
:1005F00059F488819981840F951F02969183808395
:100600008A819B81938382832115310529F4F0939C
:100610002B01E0932A013DC0E901FB83EA83499164
:100620005991C40FD51FEC17FD0761F480819181AA
:10063000840F951F0296E9019983888382819381B3
:100640009B838A83E0E0F0E012968D919C91139752
:10065000009719F0FD01DC01F7CF8D919C91119766
:100660009D012E5F3F4F820F931F209128013091F3
:1006700029012817390769F4309729F410922B01C2
:1006800010922A0102C013821282B0932901A09312
:100690002801DF91CF910895A0E0B0E0E2E5F3E01A
:1006A0000C940306AE014B5F5F4FFA0161917191AB
:1006B000AF0180912E0190912F010E946203E2E030
:1006C0000C941F06ABE0B0E0E8E6F3E00C94F30511
:1006D0006C017B018A01FC0117821682838181FFF4
:1006E000CCC1CE0101963C01F6019381F70193FD47
:1006F000859193FF81917F01882309F4BAC18532E6
:1007000039F493FD859193FF81917F01853229F41E
:10071000B60190E00E945905E7CF912C212C312C95
:10072000FFE1F315D8F08B3279F038F4803279F0AC
:100730008332A1F4232D20611DC08D3261F08033FE
:1007400069F4232D216016C0832D8260382EE32D9D
:10075000E4603E2E2AC0F32DF8601DC037FC2DC08A
:1007600020ED280F2A3040F08E32B9F436FC81C1DA
:10077000232D2064322E19C036FE06C08AE0989ED2
:10078000200D1124922E11C0EAE02E9E200D11247E
:10079000222EF32DF0623F2E08C08C3621F4832DDB
:1007A0008068382E02C0883641F4F70193FD8591A8
:1007B00093FF81917F018111B3CF982F9F7D955435
:1007C000933028F40C5F1F4F9FE399830DC083364D
:1007D00031F0833771F0833509F059C021C0F80139
:1007E000808189830E5F1F4F88248394912C53014D
:1007F00013C02801F2E04F0E511CF801A080B18017
:1008000036FE03C0692D70E002C06FEF7FEFC501B7
:100810000E944E054C018201F32DFF773F2E16C03A
:10082000280122E0420E511CF801A080B18036FE62
:1008300003C0692D70E002C06FEF7FEFC5010E9419
:1008400043054C01F32DF0683F2E820133FC1BC0A1
:10085000822D90E088169906B0F4B60180E290E00F
:100860000E9459052A94F4CFF50137FC859137FE93
:1008700081915F01B60190E00E94590521102A94F0
:1008800021E0821A91088114910471F7E8C084363E
:1008900011F0893641F5F80137FE07C0608171819A
:1008A000828193810C5F1F4F08C060817181072E88
:1008B000000C880B990B0E5F1F4FF32DFF763F2E18
:1008C00097FF09C090958095709561957F4F8F4FE8
:1008D0009F4FF0683F2E2AE030E0A3010E9495056B
:1008E000882E861845C0853731F4232D2F7EB22EF1
:1008F0002AE030E025C0932D997FB92E8F36C1F0C4
:1009000018F4883579F0B5C0803719F0883721F0B0
:10091000B0C0E92FE061BE2EB4FE0DC0FB2DF46027
:10092000BF2E09C034FE0AC0292F2660B22E06C091
:1009300028E030E005C020E130E002C020E132E0F4
:10094000F801B7FE07C060817181828193810C5FDD
:100950001F4F06C06081718180E090E00E5F1F4FE5
:10096000A3010E949505882E8618FB2DFF773F2E48
:1009700036FE0DC0232D2E7FA22E891458F434FE8E
:100980000BC032FC09C0832D8E7EA82E05C0B82C6A
:10099000A32C03C0B82C01C0B92CA4FE0FC0FE01CB
:1009A000E80DF11D8081803321F49A2D997EA92EC6
:1009B00009C0A2FE06C0B394B39404C08A2D867801
:1009C00009F0B394A3FC11C0A0FE06C0B21488F4D1
:1009D000280C922C9B180EC0B21460F4B60180E271
:1009E00090E00E945905B394F7CFB21418F42B1875
:1009F00002C0982C212CA4FE10C0B60180E390E028
:100A00000E945905A2FE17C0A1FC03C088E790E030
:100A100002C088E590E0B6010CC08A2D867859F0B6
:100A2000A1FE02C08BE201C080E2A7FC8DE2B6010C
:100A300090E00E945905891438F4B60180E390E0F3
:100A40000E9459059A94F7CF8A94F301E80DF11D9D
:100A50008081B60190E00E9459058110F5CF2220D7
:100A600009F442CEB60180E290E00E9459052A9432
:100A7000F6CFF6018681978102C08FEF9FEF2B960C
:100A8000E2E10C940F06FC010590615070400110EA
:100A9000D8F7809590958E0F9F1F0895FC016150A7
:100AA000704001900110D8F7809590958E0F9F1F90
:100AB00008950F931F93CF93DF93FB01238121FDB3
:100AC00003C08FEF9FEF2CC022FF16C046815781D5
:100AD000248135814217530744F4A081B1819D01DF
:100AE0002F5F3F4F318320838C93268137812F5F87
:100AF0003F4F3783268314C08B01EC01FB01008438
:100B0000F185E02D0995892BE1F6D80116968D9196
:100B10009C911797019617969C938E931697CE01EA
:100B2000DF91CF911F910F910895FA01AA272830E4
:100B300051F1203181F1E8946F936E7F6E5F7F4FAA
:100B40008F4F9F4FAF4FB1E03ED0B4E03CD0670F26
:100B5000781F891F9A1FA11D680F791F8A1F911D79
:100B6000A11D6A0F711D811D911DA11D20D009F4C9
:100B700068943F912AE0269F11243019305D31930B
:100B8000DEF6CF010895462F4770405D4193B3E0F4
:100B90000FD0C9F7F6CF462F4F70405D4A3318F09B
:100BA000495D31FD4052419302D0A9F7EACFB4E04C
:100BB000A6959795879577956795BA95C9F7009704
:100BC0006105710508959B01AC010A2E06945795A5
:100BD000479537952795BA95C9F7620F731F841FFC
:100BE000951FA01D08952F923F924F925F926F9292
:100BF0007F928F929F92AF92BF92CF92DF92EF92AD
:100C0000FF920F931F93CF93DF93CDB7DEB7CA1B2D
:100C1000DB0B0FB6F894DEBF0FBECDBF09942A8858
:100C2000398848885F846E847D848C849B84AA8400
:100C3000B984C884DF80EE80FD800C811B81AA818D
:100C4000B981CE0FD11D0FB6F894DEBF0FBECDBF58
:080C5000ED010895F894FFCFB7
:100C58000000320120000A64697374616E6369617F
:060C68003A2025640A0099
:00000001FF
