:100000000C9434000C9451000C9451000C94510049
:100010000C9451000C9451000C9451000C9451001C
:100020000C9451000C9451000C9451000C9451000C
:100030000C9451000C9451000C9451000C945100FC
:100040000C9451000C9451000C9451000C945100EC
:100050000C9451000C9451000C9451000C945100DC
:100060000C9451000C94510011241FBECFEFD8E026
:10007000DEBFCDBF21E0A6E0B1E001C01D92AE30F1
:10008000B207E1F711E0A0E0B1E0EAEEF0E202C071
:1000900005900D92A630B107D9F70E943E0F0C943F
:1000A00073100C940000E1E8F0E0908121E030E072
:1000B00002C0220F331F8A95E2F7292B208308956F
:1000C000009741F0EFE9FFE03197F1F700C0000041
:1000D0000197C1F70895009731F025E02A95F1F7CF
:1000E00000000197D1F70895FC01603108F06FE03E
:1000F0006111D5C08081883070F44BB1877021E0E8
:1001000030E0B90102C0660F771F8A95E2F7CB0194
:10011000842B8BB90DC045B1877021E030E0B90167
:1001200002C0660F771F8A95E2F7CB01842B85B951
:100130008181883070F44BB1877021E030E0B901E3
:1001400002C0660F771F8A95E2F7CB01842B8BB92B
:100150000DC045B1877021E030E0B90102C0660FE3
:10016000771F8A95E2F7CB01842B85B9828188308D
:1001700070F44BB1877021E030E0B90102C0660F26
:10018000771F8A95E2F7CB01842B8BB90DC045B15F
:10019000877021E030E0B90102C0660F771F8A95B1
:1001A000E2F7CB01842B85B98381883070F44BB1A1
:1001B000877021E030E0B90102C0660F771F8A9591
:1001C000E2F7CB01842B8BB90DC045B1877021E0DC
:1001D00030E0B90102C0660F771F8A95E2F7CB01C4
:1001E000842B85B98481883070F44BB1877021E00D
:1001F00030E0B90102C0660F771F8A95E2F7CB01A4
:10020000842B8BB90DC045B1877021E030E0B90176
:1002100002C0660F771F8A95E2F7CB01842B85B960
:100220008581883070F44BB1877021E030E0B901EE
:1002300002C0660F771F8A95E2F7CB01842B8BB93A
:100240000DC045B1877021E030E0B90102C0660FF2
:10025000771F8A95E2F7CB01842B85B98681883098
:1002600078F44BB1877021E030E0B90102C0660F2D
:10027000771F8A95E2F7CB01809584238BB9089587
:1002800045B1877021E030E0B90102C0660F771FE9
:100290008A95E2F7CB018095842385B90895613072
:1002A00009F0DDC08081883078F44BB1877021E09F
:1002B00030E0B90102C0660F771F8A95E2F7CB01E3
:1002C000809584238BB90EC045B1877021E030E062
:1002D000B90102C0660F771F8A95E2F7CB018095BE
:1002E000842385B98181883070F44BB1877021E017
:1002F00030E0B90102C0660F771F8A95E2F7CB01A3
:10030000842B8BB90DC045B1877021E030E0B90175
:1003100002C0660F771F8A95E2F7CB01842B85B95F
:100320008281883070F44BB1877021E030E0B901F0
:1003300002C0660F771F8A95E2F7CB01842B8BB939
:100340000DC045B1877021E030E0B90102C0660FF1
:10035000771F8A95E2F7CB01842B85B9838188309A
:1003600078F44BB1877021E030E0B90102C0660F2C
:10037000771F8A95E2F7CB01809584238BB90EC055
:1003800045B1877021E030E0B90102C0660F771FE8
:100390008A95E2F7CB018095842385B984818830E2
:1003A00078F44BB1877021E030E0B90102C0660FEC
:1003B000771F8A95E2F7CB01809584238BB90EC015
:1003C00045B1877021E030E0B90102C0660F771FA8
:1003D0008A95E2F7CB018095842385B985818830A1
:1003E00078F44BB1877021E030E0B90102C0660FAC
:1003F000771F8A95E2F7CB01809584238BB90EC0D5
:1004000045B1877021E030E0B90102C0660F771F67
:100410008A95E2F7CB018095842385B9868188305F
:1004200078F44BB1877021E030E0B90102C0660F6B
:10043000771F8A95E2F7CB01809584238BB90895C5
:1004400045B1877021E030E0B90102C0660F771F27
:100450008A95E2F7CB018095842385B908956230AF
:1004600009F0D7C08081883070F44BB1877021E0EB
:1004700030E0B90102C0660F771F8A95E2F7CB0121
:10048000842B8BB90DC045B1877021E030E0B901F4
:1004900002C0660F771F8A95E2F7CB01842B85B9DE
:1004A0008181883070F44BB1877021E030E0B90170
:1004B00002C0660F771F8A95E2F7CB01842B8BB9B8
:1004C0000DC045B1877021E030E0B90102C0660F70
:1004D000771F8A95E2F7CB01842B85B9828188301A
:1004E00078F44BB1877021E030E0B90102C0660FAB
:1004F000771F8A95E2F7CB01809584238BB90EC0D4
:1005000045B1877021E030E0B90102C0660F771F66
:100510008A95E2F7CB018095842385B98381883061
:1005200070F44BB1877021E030E0B90102C0660F72
:10053000771F8A95E2F7CB01842B8BB90DC045B1AB
:10054000877021E030E0B90102C0660F771F8A95FD
:10055000E2F7CB01842B85B98481883070F44BB1EC
:10056000877021E030E0B90102C0660F771F8A95DD
:10057000E2F7CB01842B8BB90DC045B1877021E028
:1005800030E0B90102C0660F771F8A95E2F7CB0110
:10059000842B85B98581883078F44BB1877021E050
:1005A00030E0B90102C0660F771F8A95E2F7CB01F0
:1005B000809584238BB90EC045B1877021E030E06F
:1005C000B90102C0660F771F8A95E2F7CB018095CB
:1005D000842385B98681883070F44BB1877021E01F
:1005E00030E0B90102C0660F771F8A95E2F7CB01B0
:1005F000842B8BB9089545B1877021E030E0B901B3
:1006000002C0660F771F8A95E2F7CB01842B85B96C
:100610000895633009F0D7C08081883070F44BB101
:10062000877021E030E0B90102C0660F771F8A951C
:10063000E2F7CB01842B8BB90DC045B1877021E067
:1006400030E0B90102C0660F771F8A95E2F7CB014F
:10065000842B85B98181883070F44BB1877021E09B
:1006600030E0B90102C0660F771F8A95E2F7CB012F
:10067000842B8BB90DC045B1877021E030E0B90102
:1006800002C0660F771F8A95E2F7CB01842B85B9EC
:100690008281883070F44BB1877021E030E0B9017D
:1006A00002C0660F771F8A95E2F7CB01842B8BB9C6
:1006B0000DC045B1877021E030E0B90102C0660F7E
:1006C000771F8A95E2F7CB01842B85B98381883027
:1006D00070F44BB1877021E030E0B90102C0660FC1
:1006E000771F8A95E2F7CB01842B8BB90DC045B1FA
:1006F000877021E030E0B90102C0660F771F8A954C
:10070000E2F7CB01842B85B98481883078F44BB132
:10071000877021E030E0B90102C0660F771F8A952B
:10072000E2F7CB01809584238BB90EC045B1877069
:1007300021E030E0B90102C0660F771F8A95E2F729
:10074000CB018095842385B98581883078F44BB1BD
:10075000877021E030E0B90102C0660F771F8A95EB
:10076000E2F7CB01809584238BB90EC045B1877029
:1007700021E030E0B90102C0660F771F8A95E2F7E9
:10078000CB018095842385B98681883070F44BB184
:10079000877021E030E0B90102C0660F771F8A95AB
:1007A000E2F7CB01842B8BB9089545B1877021E026
:1007B00030E0B90102C0660F771F8A95E2F7CB01DE
:1007C000842B85B90895643009F0D9C080818830C0
:1007D00078F44BB1877021E030E0B90102C0660FB8
:1007E000771F8A95E2F7CB01809584238BB90EC0E1
:1007F00045B1877021E030E0B90102C0660F771F74
:100800008A95E2F7CB018095842385B98181883070
:1008100070F44BB1877021E030E0B90102C0660F7F
:10082000771F8A95E2F7CB01842B8BB90DC045B1B8
:10083000877021E030E0B90102C0660F771F8A950A
:10084000E2F7CB01842B85B98281883070F44BB1FB
:10085000877021E030E0B90102C0660F771F8A95EA
:10086000E2F7CB01842B8BB90DC045B1877021E035
:1008700030E0B90102C0660F771F8A95E2F7CB011D
:10088000842B85B98381883078F44BB1877021E05F
:1008900030E0B90102C0660F771F8A95E2F7CB01FD
:1008A000809584238BB90EC045B1877021E030E07C
:1008B000B90102C0660F771F8A95E2F7CB018095D8
:1008C000842385B98481883078F44BB1877021E026
:1008D00030E0B90102C0660F771F8A95E2F7CB01BD
:1008E000809584238BB90EC045B1877021E030E03C
:1008F000B90102C0660F771F8A95E2F7CB01809598
:10090000842385B98581883070F44BB1877021E0EC
:1009100030E0B90102C0660F771F8A95E2F7CB017C
:10092000842B8BB90DC045B1877021E030E0B9014F
:1009300002C0660F771F8A95E2F7CB01842B85B939
:100940008681883070F44BB1877021E030E0B901C6
:1009500002C0660F771F8A95E2F7CB01842B8BB913
:10096000089545B1877021E030E0B90102C0660FFB
:10097000771F8A95E2F7CB01842B85B908956530FE
:1009800009F0D7C08081883070F44BB1877021E0C6
:1009900030E0B90102C0660F771F8A95E2F7CB01FC
:1009A000842B8BB90DC045B1877021E030E0B901CF
:1009B00002C0660F771F8A95E2F7CB01842B85B9B9
:1009C0008181883078F44BB1877021E030E0B90143
:1009D00002C0660F771F8A95E2F7CB0180958423CA
:1009E0008BB90EC045B1877021E030E0B90102C07B
:1009F000660F771F8A95E2F7CB018095842385B92E
:100A00008281883070F44BB1877021E030E0B90109
:100A100002C0660F771F8A95E2F7CB01842B8BB952
:100A20000DC045B1877021E030E0B90102C0660F0A
:100A3000771F8A95E2F7CB01842B85B983818830B3
:100A400070F44BB1877021E030E0B90102C0660F4D
:100A5000771F8A95E2F7CB01842B8BB90DC045B186
:100A6000877021E030E0B90102C0660F771F8A95D8
:100A7000E2F7CB01842B85B98481883078F44BB1BF
:100A8000877021E030E0B90102C0660F771F8A95B8
:100A9000E2F7CB01809584238BB90EC045B18770F6
:100AA00021E030E0B90102C0660F771F8A95E2F7B6
:100AB000CB018095842385B98581883070F44BB152
:100AC000877021E030E0B90102C0660F771F8A9578
:100AD000E2F7CB01842B8BB90DC045B1877021E0C3
:100AE00030E0B90102C0660F771F8A95E2F7CB01AB
:100AF000842B85B98681883070F44BB1877021E0F2
:100B000030E0B90102C0660F771F8A95E2F7CB018A
:100B1000842B8BB9089545B1877021E030E0B9018D
:100B200002C0660F771F8A95E2F7CB01842B85B947
:100B30000895663009F0D5C08081883070F44BB1DB
:100B4000877021E030E0B90102C0660F771F8A95F7
:100B5000E2F7CB01842B8BB90DC045B1877021E042
:100B600030E0B90102C0660F771F8A95E2F7CB012A
:100B7000842B85B98181883078F44BB1877021E06E
:100B800030E0B90102C0660F771F8A95E2F7CB010A
:100B9000809584238BB90EC045B1877021E030E089
:100BA000B90102C0660F771F8A95E2F7CB018095E5
:100BB000842385B98281883070F44BB1877021E03D
:100BC00030E0B90102C0660F771F8A95E2F7CB01CA
:100BD000842B8BB90DC045B1877021E030E0B9019D
:100BE00002C0660F771F8A95E2F7CB01842B85B987
:100BF0008381883070F44BB1877021E030E0B90117
:100C000002C0660F771F8A95E2F7CB01842B8BB960
:100C10000DC045B1877021E030E0B90102C0660F18
:100C2000771F8A95E2F7CB01842B85B984818830C0
:100C300070F44BB1877021E030E0B90102C0660F5B
:100C4000771F8A95E2F7CB01842B8BB90DC045B194
:100C5000877021E030E0B90102C0660F771F8A95E6
:100C6000E2F7CB01842B85B98581883070F44BB1D4
:100C7000877021E030E0B90102C0660F771F8A95C6
:100C8000E2F7CB01842B8BB90DC045B1877021E011
:100C900030E0B90102C0660F771F8A95E2F7CB01F9
:100CA000842B85B98681883070F44BB1877021E040
:100CB00030E0B90102C0660F771F8A95E2F7CB01D9
:100CC000842B8BB9089545B1877021E030E0B901DC
:100CD00002C0660F771F8A95E2F7CB01842B85B996
:100CE0000895673009F0DBC08081883070F44BB123
:100CF000877021E030E0B90102C0660F771F8A9546
:100D0000E2F7CB01842B8BB90DC045B1877021E090
:100D100030E0B90102C0660F771F8A95E2F7CB0178
:100D2000842B85B98181883070F44BB1877021E0C4
:100D300030E0B90102C0660F771F8A95E2F7CB0158
:100D4000842B8BB90DC045B1877021E030E0B9012B
:100D500002C0660F771F8A95E2F7CB01842B85B915
:100D60008281883070F44BB1877021E030E0B901A6
:100D700002C0660F771F8A95E2F7CB01842B8BB9EF
:100D80000DC045B1877021E030E0B90102C0660FA7
:100D9000771F8A95E2F7CB01842B85B98381883050
:100DA00078F44BB1877021E030E0B90102C0660FE2
:100DB000771F8A95E2F7CB01809584238BB90EC00B
:100DC00045B1877021E030E0B90102C0660F771F9E
:100DD0008A95E2F7CB018095842385B98481883098
:100DE00078F44BB1877021E030E0B90102C0660FA2
:100DF000771F8A95E2F7CB01809584238BB90EC0CB
:100E000045B1877021E030E0B90102C0660F771F5D
:100E10008A95E2F7CB018095842385B98581883056
:100E200078F44BB1877021E030E0B90102C0660F61
:100E3000771F8A95E2F7CB01809584238BB90EC08A
:100E400045B1877021E030E0B90102C0660F771F1D
:100E50008A95E2F7CB018095842385B98681883015
:100E600078F44BB1877021E030E0B90102C0660F21
:100E7000771F8A95E2F7CB01809584238BB908957B
:100E800045B1877021E030E0B90102C0660F771FDD
:100E90008A95E2F7CB018095842385B9089568305F
:100EA00009F0D3C08081883070F44BB1877021E0A5
:100EB00030E0B90102C0660F771F8A95E2F7CB01D7
:100EC000842B8BB90DC045B1877021E030E0B901AA
:100ED00002C0660F771F8A95E2F7CB01842B85B994
:100EE0008181883070F44BB1877021E030E0B90126
:100EF00002C0660F771F8A95E2F7CB01842B8BB96E
:100F00000DC045B1877021E030E0B90102C0660F25
:100F1000771F8A95E2F7CB01842B85B982818830CF
:100F200070F44BB1877021E030E0B90102C0660F68
:100F3000771F8A95E2F7CB01842B8BB90DC045B1A1
:100F4000877021E030E0B90102C0660F771F8A95F3
:100F5000E2F7CB01842B85B98381883070F44BB1E3
:100F6000877021E030E0B90102C0660F771F8A95D3
:100F7000E2F7CB01842B8BB90DC045B1877021E01E
:100F800030E0B90102C0660F771F8A95E2F7CB0106
:100F9000842B85B98481883070F44BB1877021E04F
:100FA00030E0B90102C0660F771F8A95E2F7CB01E6
:100FB000842B8BB90DC045B1877021E030E0B901B9
:100FC00002C0660F771F8A95E2F7CB01842B85B9A3
:100FD0008581883070F44BB1877021E030E0B90131
:100FE00002C0660F771F8A95E2F7CB01842B8BB97D
:100FF0000DC045B1877021E030E0B90102C0660F35
:10100000771F8A95E2F7CB01842B85B986818830DA
:1010100070F44BB1877021E030E0B90102C0660F77
:10102000771F8A95E2F7CB01842B8BB9089545B1E0
:10103000877021E030E0B90102C0660F771F8A9502
:10104000E2F7CB01842B85B90895693009F0D5C04A
:101050008081883070F44BB1877021E030E0B901B5
:1010600002C0660F771F8A95E2F7CB01842B8BB9FC
:101070000DC045B1877021E030E0B90102C0660FB4
:10108000771F8A95E2F7CB01842B85B9818188305F
:1010900070F44BB1877021E030E0B90102C0660FF7
:1010A000771F8A95E2F7CB01842B8BB90DC045B130
:1010B000877021E030E0B90102C0660F771F8A9582
:1010C000E2F7CB01842B85B98281883070F44BB173
:1010D000877021E030E0B90102C0660F771F8A9562
:1010E000E2F7CB01842B8BB90DC045B1877021E0AD
:1010F00030E0B90102C0660F771F8A95E2F7CB0195
:10110000842B85B98381883070F44BB1877021E0DE
:1011100030E0B90102C0660F771F8A95E2F7CB0174
:10112000842B8BB90DC045B1877021E030E0B90147
:1011300002C0660F771F8A95E2F7CB01842B85B931
:101140008481883078F44BB1877021E030E0B901B8
:1011500002C0660F771F8A95E2F7CB018095842342
:101160008BB90EC045B1877021E030E0B90102C0F3
:10117000660F771F8A95E2F7CB018095842385B9A6
:101180008581883070F44BB1877021E030E0B9017F
:1011900002C0660F771F8A95E2F7CB01842B8BB9CB
:1011A0000DC045B1877021E030E0B90102C0660F83
:1011B000771F8A95E2F7CB01842B85B98681883029
:1011C00070F44BB1877021E030E0B90102C0660FC6
:1011D000771F8A95E2F7CB01842B8BB9089545B12F
:1011E000877021E030E0B90102C0660F771F8A9551
:1011F000E2F7CB01842B85B908956A3009F0D5C098
:101200008081883070F44BB1877021E030E0B90103
:1012100002C0660F771F8A95E2F7CB01842B8BB94A
:101220000DC045B1877021E030E0B90102C0660F02
:10123000771F8A95E2F7CB01842B85B981818830AD
:1012400070F44BB1877021E030E0B90102C0660F45
:10125000771F8A95E2F7CB01842B8BB90DC045B17E
:10126000877021E030E0B90102C0660F771F8A95D0
:10127000E2F7CB01842B85B98281883070F44BB1C1
:10128000877021E030E0B90102C0660F771F8A95B0
:10129000E2F7CB01842B8BB90DC045B1877021E0FB
:1012A00030E0B90102C0660F771F8A95E2F7CB01E3
:1012B000842B85B98381883078F44BB1877021E025
:1012C00030E0B90102C0660F771F8A95E2F7CB01C3
:1012D000809584238BB90EC045B1877021E030E042
:1012E000B90102C0660F771F8A95E2F7CB0180959E
:1012F000842385B98481883070F44BB1877021E0F4
:1013000030E0B90102C0660F771F8A95E2F7CB0182
:10131000842B8BB90DC045B1877021E030E0B90155
:1013200002C0660F771F8A95E2F7CB01842B85B93F
:101330008581883070F44BB1877021E030E0B901CD
:1013400002C0660F771F8A95E2F7CB01842B8BB919
:101350000DC045B1877021E030E0B90102C0660FD1
:10136000771F8A95E2F7CB01842B85B98681883077
:1013700070F44BB1877021E030E0B90102C0660F14
:10138000771F8A95E2F7CB01842B8BB9089545B17D
:10139000877021E030E0B90102C0660F771F8A959F
:1013A000E2F7CB01842B85B908956B3009F0D7C0E3
:1013B0008081883078F44BB1877021E030E0B9014A
:1013C00002C0660F771F8A95E2F7CB0180958423D0
:1013D0008BB90EC045B1877021E030E0B90102C081
:1013E000660F771F8A95E2F7CB018095842385B934
:1013F0008181883078F44BB1877021E030E0B90109
:1014000002C0660F771F8A95E2F7CB01809584238F
:101410008BB90EC045B1877021E030E0B90102C040
:10142000660F771F8A95E2F7CB018095842385B9F3
:101430008281883070F44BB1877021E030E0B901CF
:1014400002C0660F771F8A95E2F7CB01842B8BB918
:101450000DC045B1877021E030E0B90102C0660FD0
:10146000771F8A95E2F7CB01842B85B98381883079
:1014700070F44BB1877021E030E0B90102C0660F13
:10148000771F8A95E2F7CB01842B8BB90DC045B14C
:10149000877021E030E0B90102C0660F771F8A959E
:1014A000E2F7CB01842B85B98481883070F44BB18D
:1014B000877021E030E0B90102C0660F771F8A957E
:1014C000E2F7CB01842B8BB90DC045B1877021E0C9
:1014D00030E0B90102C0660F771F8A95E2F7CB01B1
:1014E000842B85B98581883070F44BB1877021E0F9
:1014F00030E0B90102C0660F771F8A95E2F7CB0191
:10150000842B8BB90DC045B1877021E030E0B90163
:1015100002C0660F771F8A95E2F7CB01842B85B94D
:101520008681883070F44BB1877021E030E0B901DA
:1015300002C0660F771F8A95E2F7CB01842B8BB927
:10154000089545B1877021E030E0B90102C0660F0F
:10155000771F8A95E2F7CB01842B85B908956C300B
:1015600009F0D9C08081883070F44BB1877021E0D8
:1015700030E0B90102C0660F771F8A95E2F7CB0110
:10158000842B8BB90DC045B1877021E030E0B901E3
:1015900002C0660F771F8A95E2F7CB01842B85B9CD
:1015A0008181883078F44BB1877021E030E0B90157
:1015B00002C0660F771F8A95E2F7CB0180958423DE
:1015C0008BB90EC045B1877021E030E0B90102C08F
:1015D000660F771F8A95E2F7CB018095842385B942
:1015E0008281883078F44BB1877021E030E0B90116
:1015F00002C0660F771F8A95E2F7CB01809584239E
:101600008BB90EC045B1877021E030E0B90102C04E
:10161000660F771F8A95E2F7CB018095842385B901
:101620008381883070F44BB1877021E030E0B901DC
:1016300002C0660F771F8A95E2F7CB01842B8BB926
:101640000DC045B1877021E030E0B90102C0660FDE
:10165000771F8A95E2F7CB01842B85B98481883086
:1016600070F44BB1877021E030E0B90102C0660F21
:10167000771F8A95E2F7CB01842B8BB90DC045B15A
:10168000877021E030E0B90102C0660F771F8A95AC
:10169000E2F7CB01842B85B98581883070F44BB19A
:1016A000877021E030E0B90102C0660F771F8A958C
:1016B000E2F7CB01842B8BB90DC045B1877021E0D7
:1016C00030E0B90102C0660F771F8A95E2F7CB01BF
:1016D000842B85B98681883078F44BB1877021E0FE
:1016E00030E0B90102C0660F771F8A95E2F7CB019F
:1016F000809584238BB9089545B1877021E030E04F
:10170000B90102C0660F771F8A95E2F7CB01809579
:10171000842385B908956D3009F0D7C08081883061
:1017200078F44BB1877021E030E0B90102C0660F58
:10173000771F8A95E2F7CB01809584238BB90EC081
:1017400045B1877021E030E0B90102C0660F771F14
:101750008A95E2F7CB018095842385B98181883011
:1017600070F44BB1877021E030E0B90102C0660F20
:10177000771F8A95E2F7CB01842B8BB90DC045B159
:10178000877021E030E0B90102C0660F771F8A95AB
:10179000E2F7CB01842B85B98281883070F44BB19C
:1017A000877021E030E0B90102C0660F771F8A958B
:1017B000E2F7CB01842B8BB90DC045B1877021E0D6
:1017C00030E0B90102C0660F771F8A95E2F7CB01BE
:1017D000842B85B98381883070F44BB1877021E008
:1017E00030E0B90102C0660F771F8A95E2F7CB019E
:1017F000842B8BB90DC045B1877021E030E0B90171
:1018000002C0660F771F8A95E2F7CB01842B85B95A
:101810008481883070F44BB1877021E030E0B901E9
:1018200002C0660F771F8A95E2F7CB01842B8BB934
:101830000DC045B1877021E030E0B90102C0660FEC
:10184000771F8A95E2F7CB01842B85B98581883093
:1018500078F44BB1877021E030E0B90102C0660F27
:10186000771F8A95E2F7CB01809584238BB90EC050
:1018700045B1877021E030E0B90102C0660F771FE3
:101880008A95E2F7CB018095842385B986818830DB
:1018900070F44BB1877021E030E0B90102C0660FEF
:1018A000771F8A95E2F7CB01842B8BB9089545B158
:1018B000877021E030E0B90102C0660F771F8A957A
:1018C000E2F7CB01842B85B908956E3009F0D7C0BB
:1018D0008081883070F44BB1877021E030E0B9012D
:1018E00002C0660F771F8A95E2F7CB01842B8BB974
:1018F0000DC045B1877021E030E0B90102C0660F2C
:10190000771F8A95E2F7CB01842B85B981818830D6
:1019100078F44BB1877021E030E0B90102C0660F66
:10192000771F8A95E2F7CB01809584238BB90EC08F
:1019300045B1877021E030E0B90102C0660F771F22
:101940008A95E2F7CB018095842385B9828188301E
:1019500078F44BB1877021E030E0B90102C0660F26
:10196000771F8A95E2F7CB01809584238BB90EC04F
:1019700045B1877021E030E0B90102C0660F771FE2
:101980008A95E2F7CB018095842385B983818830DD
:1019900070F44BB1877021E030E0B90102C0660FEE
:1019A000771F8A95E2F7CB01842B8BB90DC045B127
:1019B000877021E030E0B90102C0660F771F8A9579
:1019C000E2F7CB01842B85B98481883070F44BB168
:1019D000877021E030E0B90102C0660F771F8A9559
:1019E000E2F7CB01842B8BB90DC045B1877021E0A4
:1019F00030E0B90102C0660F771F8A95E2F7CB018C
:101A0000842B85B98581883070F44BB1877021E0D3
:101A100030E0B90102C0660F771F8A95E2F7CB016B
:101A2000842B8BB90DC045B1877021E030E0B9013E
:101A300002C0660F771F8A95E2F7CB01842B85B928
:101A40008681883070F44BB1877021E030E0B901B5
:101A500002C0660F771F8A95E2F7CB01842B8BB902
:101A6000089545B1877021E030E0B90102C0660FEA
:101A7000771F8A95E2F7CB01842B85B908956F30E3
:101A800009F0D8C08081883070F44BB1877021E0B4
:101A900030E0B90102C0660F771F8A95E2F7CB01EB
:101AA000842B8BB90DC045B1877021E030E0B901BE
:101AB00002C0660F771F8A95E2F7CB01842B85B9A8
:101AC0008181883078F44BB1877021E030E0B90132
:101AD00002C0660F771F8A95E2F7CB0180958423B9
:101AE0008BB90EC045B1877021E030E0B90102C06A
:101AF000660F771F8A95E2F7CB018095842385B91D
:101B00008281883078F44BB1877021E030E0B901F0
:101B100002C0660F771F8A95E2F7CB018095842378
:101B20008BB90EC045B1877021E030E0B90102C029
:101B3000660F771F8A95E2F7CB018095842385B9DC
:101B40008381883078F44BB1877021E030E0B901AF
:101B500002C0660F771F8A95E2F7CB018095842338
:101B60008BB90EC045B1877021E030E0B90102C0E9
:101B7000660F771F8A95E2F7CB018095842385B99C
:101B80008481883070F44BB1877021E030E0B90176
:101B900002C0660F771F8A95E2F7CB01842B8BB9C1
:101BA0000DC045B1877021E030E0B90102C0660F79
:101BB000771F8A95E2F7CB01842B85B98581883020
:101BC00070F44BB1877021E030E0B90102C0660FBC
:101BD000771F8A95E2F7CB01842B8BB90DC045B1F5
:101BE000877021E030E0B90102C0660F771F8A9547
:101BF000E2F7CB01842B85B98681883070F44BB134
:101C0000877021E030E0B90102C0660F771F8A9526
:101C1000E2F7CB01842B8BB9089545B1877021E0A1
:101C200030E0B90102C0660F771F8A95E2F7CB0159
:101C3000842B85B9089581E00E945300509A519AEF
:101C4000529A539A549A559A209A219A84E090E095
:101C50000E94520F27E0FC01208326E0218390930D
:101C600009018093080188E090E00E94520FFC0176
:101C7000108281E0818382E0828383E0838384E039
:101C8000848385E0858388E0868389E08783F09379
:101C90000701E093060108950F931F93CF93DF93FD
:101CA000C0910801D09109018881883070F44BB14E
:101CB000877021E030E0B90102C0660F771F8A9576
:101CC000E2F7CB01842B8BB90DC045B1877021E0C1
:101CD00030E0B90102C0660F771F8A95E2F7CB01A9
:101CE000842B85B98AE090E00E946B00888188305F
:101CF00078F44BB1877021E030E0B90102C0660F83
:101D0000771F8A95E2F7CB01809584238BB90EC0AB
:101D100045B1877021E030E0B90102C0660F771F3E
:101D20008A95E2F7CB018095842385B94981842F78
:101D3000877021E030E002C0220F331F8A95E2F75E
:101D4000483010F489B101C083B190E0822393231D
:101D5000892BB1F310928500109284004981842F61
:101D6000877021E030E002C0220F331F8A95E2F72E
:101D7000483010F489B101C083B190E082239323ED
:101D8000892BB1F700918400109185001B830A8391
:101D90008CE390E00E9460009801AFE9B6E40E94F5
:101DA000430F96958795929582958F7089279F709E
:101DB0008927682F80910601909107010E94740085
:101DC000E0910601F09107018781883060F42BB122
:101DD000877030E0082E02C0359527950A94E2F707
:101DE00020FF0DC02AC025B1877030E0082E02C048
:101DF000359527950A94E2F720FD2DC00DC04BB113
:101E000021E030E0B90102C0660F771F8A95E2F742
:101E1000CB01842B8BB90CC045B121E030E0B90176
:101E200002C0660F771F8A95E2F7CB01842B85B934
:101E300084EF91E00E9460001CC04BB121E030E0D3
:101E4000B90102C0660F771F8A95E2F7CB01809532
:101E500084238BB9EDCF45B121E030E0B90102C058
:101E6000660F771F8A95E2F7CB018095842385B9A9
:101E7000DFCFDF91CF911F910F9108950E941B0E2C
:101E80000E944C0EFDCFA29FB001B39FC001A39F43
:101E9000700D811D1124911DB29F700D811D1124A3
:101EA000911D08950F931F93CF93DF938230910577
:101EB00010F482E090E0E0910C01F0910D0120E03F
:101EC00030E0A0E0B0E0309719F14081518102810B
:101ED000138148175907C8F08417950769F41097BC
:101EE00031F012960C93129713961C9327C000930F
:101EF0000C0110930D0122C02115310519F0421774
:101F0000530718F49A01BD01EF01DF01F801DBCF9F
:101F100021153105F9F0281B390B2430310580F4E7
:101F20008A819B816115710521F0FB019383828376
:101F300004C090930D0180930C01FE01329644C0C1
:101F4000FE01E20FF31F81939193225031093983EF
:101F500028833AC020910A0130910B01232B41F4D0
:101F6000209102013091030130930B0120930A016B
:101F700020910001309101012115310541F42DB767
:101F80003EB74091040150910501241B350BE091AF
:101F90000A01F0910B01E217F307A0F42E1B3F0B8F
:101FA0002817390778F0AC014E5F5F4F24173507CB
:101FB00048F04E0F5F1F50930B0140930A0181932D
:101FC000919302C0E0E0F0E0CF01DF91CF911F914B
:101FD0000F910895CF93DF93009709F481C0FC011E
:101FE000329713821282A0910C01B0910D011097CB
:101FF00081F420813181820F931F20910A01309159
:102000000B012817390751F5F0930B01E0930A01F2
:1020100067C0ED0120E030E0CE17DF0740F44A81D1
:102020005B819E0141155105F1F0EA01F5CFD383A3
:10203000C28340815181840F951FC817D90759F475
:1020400088819981840F951F0296918380838A816C
:102050009B81938382832115310529F4F0930D012F
:10206000E0930C013DC0E901FB83EA83499159915A
:10207000C40FD51FEC17FD0761F480819181840F97
:10208000951F0296E90199838883828193819B83BE
:102090008A83E0E0F0E012968D919C91139700976F
:1020A00019F0FD01DC01F7CF8D919C9111979D01F5
:1020B0002E5F3F4F820F931F20910A0130910B0139
:1020C0002817390769F4309729F410920D011092FE
:1020D0000C0102C013821282B0930B01A0930A017B
:0A20E000DF91CF910895F894FFCF2F
:0620EA0000000E012000C1
:00000001FF
