:100000000C9434000C9451000C9451000C94510049
:100010000C9451000C9451000C9451000C9451001C
:100020000C9451000C9451000C9451000C9451000C
:100030000C9451000C9451000C9451000C945100FC
:100040000C9451000C9451000C9451000C945100EC
:100050000C9451000C9451000C9451000C945100DC
:100060000C9451000C94510011241FBECFEFD8E026
:10007000DEBFCDBF21E0A6E0B1E001C01D92A232FB
:10008000B207E1F711E0A0E0B1E0ECEAF4E002C071
:1000900005900D92A630B107D9F70E9422010C9469
:1000A00054020C940000CF93C82F8A3019F48DE0CD
:1000B0000E945300E0ECF0E0808185FFFDCFC0930B
:1000C000C60080E090E0CF910895E0ECF0E0808100
:1000D0008823ECF78091C60090E00895EAE0F1E013
:1000E00083E590E09187808785E690E0938782871B
:1000F00083E08383158614861092C50087E680937B
:10010000C400A0ECB0E08C918D7F8C9386E080934E
:10011000C20088E18093C100ACE1B1E01396FC938A
:10012000EE931297ED93FC93089581E090E00E9486
:10013000330128E0FC012083209A909309018093E9
:10014000080183E090E00E943301FC0189E0808394
:10015000118212822198F0930701E0930601E09149
:100160000801F09109018081883078F44BB18770E3
:1001700021E030E0B90102C0660F771F8A95E2F7EF
:10018000CB01809584238BB9089545B1877021E018
:1001900030E0F90102C0EE0FFF1F8A95E2F7CF01B0
:1001A0008095842385B90895E0910601F0910701B7
:1001B0003081383010F489B101C083B1E091080179
:1001C000F0910901208190E0377002C095958795E4
:1001D0003A95E2F780FD1AC0283060F43BB12770F1
:1001E00081E090E002C0880F991F2A95E2F7832BE7
:1001F0008BB9089535B1277081E090E002C0880F77
:10020000991F2A95E2F7832B85B90895283068F461
:100210003BB1277081E090E002C0880F991F2A95BA
:10022000E2F7809583238BB9089535B1277081E07B
:1002300090E002C0880F991F2A95E2F780958323EA
:1002400085B9089514B81AB88FEF85B98BB90E9493
:100250006E00E1E8F0E08081826080830E9495007A
:100260000E94D400FDCF0F931F93CF93DF93823072
:10027000910510F482E090E0E0911A01F0911B01E9
:1002800020E030E0A0E0B0E0309719F140815181EA
:100290000281138148175907C8F08417950769F43C
:1002A000109731F012960C93129713961C9327C057
:1002B00000931A0110931B0122C02115310519F07A
:1002C0004217530718F49A01BD01EF01DF01F8014D
:1002D000DBCF21153105F9F0281B390B243031050E
:1002E00080F48A819B816115710521F0FB01938364
:1002F000828304C090931B0180931A01FE01329601
:1003000044C0FE01E20FF31F819391932250310903
:10031000398328833AC02091180130911901232B89
:1003200041F420910201309103013093190120938F
:10033000180120910001309101012115310541F48E
:100340002DB73EB74091040150910501241B350B98
:10035000E0911801F0911901E217F307A0F42E1BA8
:100360003F0B2817390778F0AC014E5F5F4F241719
:10037000350748F04E0F5F1F509319014093180145
:100380008193919302C0E0E0F0E0CF01DF91CF9143
:100390001F910F910895CF93DF93009709F481C0C7
:1003A000FC01329713821282A0911A01B0911B01B5
:1003B000109781F420813181820F931F20911801C1
:1003C000309119012817390751F5F0931901E0937D
:1003D000180167C0ED0120E030E0CE17DF0740F4E0
:1003E0004A815B819E0141155105F1F0EA01F5CF8B
:1003F000D383C28340815181840F951FC817D907C9
:1004000059F488819981840F951F02969183808386
:100410008A819B81938382832115310529F4F0938E
:100420001B01E0931A013DC0E901FB83EA83499176
:100430005991C40FD51FEC17FD0761F4808191819C
:10044000840F951F0296E9019983888382819381A5
:100450009B838A83E0E0F0E012968D919C91139744
:10046000009719F0FD01DC01F7CF8D919C91119758
:100470009D012E5F3F4F820F931F209118013091F5
:1004800019012817390769F4309729F410921B01D4
:1004900010921A0102C013821282B0931901A09324
:0C04A0001801DF91CF910895F894FFCF70
:0604AC0000002201200007
:00000001FF
