S01300005A656475696E6F546573742E7372656393
S11300000C9434000C9451000C9451000C94510045
S11300100C9451000C9451000C9451000C94510018
S11300200C9451000C9451000C9451000C94510008
S11300300C9451000C9451000C9451000C945100F8
S11300400C9451000C9451000C9451000C945100E8
S11300500C9451000C9451000C9451000C945100D8
S11300600C9451000C94510011241FBECFEFD8E022
S1130070DEBFCDBF11E0A0E0B1E0EEEFFAE002C0D8
S113008005900D92A231B107D9F721E0A2E1B1E0C8
S113009001C01D92AC32B207E1F70E9468010C94D2
S11300A07D050C940000CF93C82F8A3019F48DE09D
S11300B00E945300E0ECF0E0808185FFFDCFC09307
S11300C0C60080E090E0CF910895E0ECF0E08081FC
S11300D08823ECF78091C60090E00895009741F0E2
S11300E0EFE9FFE03197F1F700C000000197C1F795
S11300F00895009731F025E02A95F1F70000019763
S1130100D1F70895E4E1F1E083E590E091878087F9
S113011085E690E09387828783E08383158614863F
S11301201092C50087E68093C400A0ECB0E08C91E7
S11301308D7F8C9386E08093C20088E18093C10018
S1130140A6E2B1E01396FC93EE931297ED93FC9321
S11301500895CF93DF93CDB7DEB72D813E81CE01D5
S113016007969F938F933F932F930E949F020F9024
S11301700F900F900F90DF91CF9108955698579A52
S113018084E090E00E947E0127E0FC01208326E0C9
S11301902183909313018093120108950F931F9369
S11301A0CF93DF93C0911201D091130188818830DD
S11301B070F44BB1877021E030E0B90102C0660FE2
S11301C0771F8A95E2F7CB01842B8BB90DC045B11B
S11301D0877021E030E0B90102C0660F771F8A956D
S11301E0E2F7CB01842B85B98AE090E00E94790084
S11301F08881883078F44BB1877021E030E0B90110
S113020002C0660F771F8A95E2F7CB01809584239D
S11302108BB90EC045B1877021E030E0B90102C04E
S1130220660F771F8A95E2F7CB018095842385B901
S11302304981842F877021E030E002C0220F331FF0
S11302408A95E2F7483010F489B101C083B190E097
S113025082239323892BB1F310928500109284009A
S11302604981842F877021E030E002C0220F331FC0
S11302708A95E2F7483010F489B101C083B190E067
S113028082239323892BB1F7009184001091850078
S11302901B830A838CE390E00E946E009801AFE90F
S11302A0B6E40E946F0196958795929582958F701A
S11302B089279F7089278A5F9E4F9F938F930E94FF
S11302C0A9000F900F90DF91CF911F910F91089586
S11302D00E9482000E94BE000E94CE00FDCFA29F19
S11302E0B001B39FC001A39F700D811D1124911D06
S11302F0B29F700D811D1124911D08950F931F93BA
S1130300CF93DF938230910510F482E090E0E09186
S11303102401F091250120E030E0A0E0B0E0309726
S113032019F1408151810281138148175907C8F09E
S11303308417950769F4109731F012960C9312976D
S113034013961C9327C0009324011093250122C007
S11303502115310519F04217530718F49A01BD010C
S1130360EF01DF01F801DBCF21153105F9F0281B7E
S1130370390B2430310580F48A819B816115710524
S113038021F0FB019383828304C090932501809321
S11303902401FE01329644C0FE01E20FF31F819353
S11303A0919322503109398328833AC02091220144
S11303B030912301232B41F4209102013091030158
S11303C030932301209322012091000130910101F7
S11303D02115310541F42DB73EB7409104015091E8
S11303E00501241B350BE0912201F0912301E21752
S11303F0F307A0F42E1B3F0B2817390778F0AC0144
S11304004E5F5F4F2417350748F04E0F5F1F509320
S11304102301409322018193919302C0E0E0F0E034
S1130420CF01DF91CF911F910F910895CF93DF9367
S1130430009709F481C0FC01329713821282A091C3
S11304402401B0912501109781F420813181820F1C
S1130450931F20912201309123012817390751F568
S1130460F0932301E093220167C0ED0120E030E026
S1130470CE17DF0740F44A815B819E014115510587
S1130480F1F0EA01F5CFD383C28340815181840F17
S1130490951FC817D90759F488819981840F951F2E
S11304A00296918380838A819B8193838283211521
S11304B0310529F4F0932501E09324013DC0E901BD
S11304C0FB83EA8349915991C40FD51FEC17FD07AB
S11304D061F480819181840F951F0296E9019983CB
S11304E08883828193819B838A83E0E0F0E0129683
S11304F08D919C911397009719F0FD01DC01F7CFC2
S11305008D919C9111979D012E5F3F4F820F931FF8
S113051020912201309123012817390769F430977B
S113052029F4109225011092240102C01382128230
S1130530B0932301A0932201DF91CF910895A0E00D
S1130540B0E0E5EAF2E00C945605AE014B5F5F4F74
S1130550FA0161917191AF01809128019091290173
S11305600E94B502E2E00C947205ABE0B0E0EBEB64
S1130570F2E00C9446056C017B018A01FC011782B0
S11305801682838181FFCCC1CE0101963C01F60124
S11305909381F70193FD859193FF81917F018823D6
S11305A009F4BAC1853239F493FD859193FF8191A1
S11305B07F01853229F4B60190E00E94AC04E7CFB4
S11305C0912C212C312CFFE1F315D8F08B3279F0EA
S11305D038F4803279F08332A1F4232D20611DC0D8
S11305E08D3261F0803369F4232D216016C0832D90
S11305F08260382EE32DE4603E2E2AC0F32DF8608D
S11306001DC037FC2DC020ED280F2A3040F08E325B
S1130610B9F436FC81C1232D2064322E19C036FE74
S113062006C08AE0989E200D1124922E11C0EAE0A3
S11306302E9E200D1124222EF32DF0623F2E08C091
S11306408C3621F4832D8068382E02C0883641F41C
S1130650F70193FD859193FF81917F018111B3CFC0
S1130660982F9F7D9554933028F40C5F1F4F9FE380
S113067099830DC0833631F0833771F0833509F0E7
S113068059C021C0F801808189830E5F1F4F8824DF
S11306908394912C530113C02801F2E04F0E511C96
S11306A0F801A080B18036FE03C0692D70E002C05D
S11306B06FEF7FEFC5010E94A1044C018201F32D6D
S11306C0FF773F2E16C0280122E0420E511CF8018C
S11306D0A080B18036FE03C0692D70E002C06FEFC8
S11306E07FEFC5010E9496044C01F32DF0683F2E64
S11306F0820133FC1BC0822D90E088169906B0F469
S1130700B60180E290E00E94AC042A94F4CFF50193
S113071037FC859137FE81915F01B60190E00E941C
S1130720AC0421102A9421E0821A910881149104C6
S113073071F7E8C0843611F0893641F5F80137FEC7
S113074007C060817181828193810C5F1F4F08C053
S113075060817181072E000C880B990B0E5F1F4F6F
S1130760F32DFF763F2E97FF09C0909580957095E5
S113077061957F4F8F4F9F4FF0683F2E2AE030E006
S1130780A3010E94E804882E861845C0853731F4F9
S1130790232D2F7EB22E2AE030E025C0932D997FA1
S11307A0B92E8F36C1F018F4883579F0B5C080378A
S11307B019F0883721F0B0C0E92FE061BE2EB4FEF5
S11307C00DC0FB2DF460BF2E09C034FE0AC0292FD2
S11307D02660B22E06C028E030E005C020E130E0FB
S11307E002C020E132E0F801B7FE07C060817181E8
S11307F0828193810C5F1F4F06C06081718180E00C
S113080090E00E5F1F4FA3010E94E804882E861813
S1130810FB2DFF773F2E36FE0DC0232D2E7FA22EFB
S1130820891458F434FE0BC032FC09C0832D8E7E2B
S1130830A82E05C0B82CA32C03C0B82C01C0B92C19
S1130840A4FE0FC0FE01E80DF11D8081803321F468
S11308509A2D997EA92E09C0A2FE06C0B394B39422
S113086004C08A2D867809F0B394A3FC11C0A0FEBD
S113087006C0B21488F4280C922C9B180EC0B21433
S113088060F4B60180E290E00E94AC04B394F7CF28
S1130890B21418F42B1802C0982C212CA4FE10C0FA
S11308A0B60180E390E00E94AC04A2FE17C0A1FC54
S11308B003C088E790E002C088E590E0B6010CC070
S11308C08A2D867859F0A1FE02C08BE201C080E235
S11308D0A7FC8DE2B60190E00E94AC04891438F4C0
S11308E0B60180E390E00E94AC049A94F7CF8A9416
S11308F0F301E80DF11D8081B60190E00E94AC0483
S11309008110F5CF222009F442CEB60180E290E0B6
S11309100E94AC042A94F6CFF6018681978102C026
S11309208FEF9FEF2B96E2E10C946205FC0105909A
S1130930615070400110D8F7809590958E0F9F1FDD
S11309400895FC016150704001900110D8F7809522
S113095090958E0F9F1F08950F931F93CF93DF934E
S1130960FB01238121FD03C08FEF9FEF2CC022FFE9
S113097016C046815781248135814217530744F4B8
S1130980A081B1819D012F5F3F4F318320838C93E0
S1130990268137812F5F3F4F3783268314C08B0115
S11309A0EC01FB010084F185E02D0995892BE1F62A
S11309B0D80116968D919C911797019617969C9342
S11309C08E931697CE01DF91CF911F910F910895C9
S11309D0FA01AA27283051F1203181F1E8946F936C
S11309E06E7F6E5F7F4F8F4F9F4FAF4FB1E03ED012
S11309F0B4E03CD0670F781F891F9A1FA11D680FB0
S1130A00791F8A1F911DA11D6A0F711D811D911DE2
S1130A10A11D20D009F468943F912AE0269F112457
S1130A203019305D3193DEF6CF010895462F4770BB
S1130A30405D4193B3E00FD0C9F7F6CF462F4F7016
S1130A40405D4A3318F0495D31FD4052419302D074
S1130A50A9F7EACFB4E0A69597958795779567951A
S1130A60BA95C9F700976105710508959B01AC011A
S1130A700A2E06945795479537952795BA95C9F741
S1130A80620F731F841F951FA01D08952F923F921C
S1130A904F925F926F927F928F929F92AF92BF928A
S1130AA0CF92DF92EF92FF920F931F93CF93DF9336
S1130AB0CDB7DEB7CA1BDB0B0FB6F894DEBF0FBE93
S1130AC0CDBF09942A88398848885F846E847D84E0
S1130AD08C849B84AA84B984C884DF80EE80FD80E2
S1130AE00C811B81AA81B981CE0FD11D0FB6F89458
S1110AF0DEBF0FBECDBFED010895F894FFCF19
S1130AFE00002C01200064697374616E6369613AAD
S1050B0E2000C1
S9030000FC
